:020000040800F2
:1000000010B80020B1140008790300087B03000831
:100010007F03000883030008870300080000000036
:100020000000000000000000000000008B0300083A
:100030008D03000800000000C7140008C914000860
:10004000CB140008CB140008CB140008CB14000814
:10005000CB140008CB140008CB140008ED0C0008EA
:10006000CB140008CB140008CB140008CB140008F4
:100070000F0C0008250C00083F0C0008570C000866
:10008000CB140008CB140008CB140008CB140008D4
:10009000CB140008CB140008CB140008CB140008C4
:1000A000CB140008CB140008CB140008CB140008B4
:1000B000CB14000871090008CB140008CB14000809
:1000C000CB140008CB140008CB140008BF090008AB
:1000D000130A0008BF11000857120008591300083E
:1000E000CB140008CB140008CB140008CB14000874
:1000F000CB140008CB140008CB140008CB14000864
:10010000CB140008CB140008CB140008CB14000853
:10011000CB140008CB140008CB140008CB14000843
:10012000CB140008CB140008CB140008CB14000833
:10013000DFF80CD005F0D0F900480047B502000800
:1001400010B8002070B57E48006805F065F9C5B2AA
:100150007C480668002407E07B4A115D7B4A1069F1
:1001600004F097FD601CC4B2082CF5DB002407E006
:1001700016F8011B754A106904F08BFD601CC4B2AF
:10018000AC42F5DB714909698A687149086905F172
:10019000080104F038FD70BD10B5002407E06D4A79
:1001A000115D6A4A106904F074FD601CC4B2082C29
:1001B000F5DB664909698A6865490869082104F020
:1001C00022FD10BD70B50546002409E0624A115DAC
:1001D0005E4BEA1C53F8220004F05BFD601CC4B2C5
:1001E000082CF3DB002409E05C4A115D574BEA1C44
:1001F00053F8220004F04DFD601CC4B2032CF3DB65
:10020000524BE91C53F82110514B8A68E91C53F8F2
:1002100021000B2104F0F7FC70BD70B5494800685F
:1002200005F0FAF8C5B247480668002407E04C4AD2
:10023000115D464A106904F02CFD601CC4B2082C04
:10024000F5DB002407E016F8011B404A106904F0B2
:1002500020FD601CC4B2AC42F5DB3C4909698A68E8
:100260003B49086905F1080104F0CDFC70BD10B5EB
:100270003C4801680020884700F0C5F900F00EFDF9
:1002800000F076F900F040FA00F088FA00214FF40F
:10029000E15000F039FD04F03EFC04F0F9FF04F0F9
:1002A000ACFC00F04CFF00F05FFD2F48416860207F
:1002B000884710BD002400BF0025002600BFFFF7BF
:1002C000D6FF3CE0002438E0002000F0C7F90646E5
:1002D000032E02D1FFF736FF09E0022E02D1FFF70D
:1002E0005BFF04E0012E02D10120FFF76BFF1848ED
:1002F00050F82400006810B1204604F06EFF144945
:10030000A01D51F82000006810B1A01D04F097FF57
:10031000052C00D1FF246D1C1448854203D8002011
:100320001349086007E01348854203D801201049AB
:10033000086000E00025601CC4B2062CC4DBC1E7E5
:1003400014000020100000200800002094B10020BC
:10035000C4B1002020000020180000202800002048
:1003600000000020C800002030010020A08601000D
:10037000A0012142801A0600704700BFFEE700BFBF
:10038000FEE700BFFEE700BFFEE7704770470000D2
:100390000CB50020019000906C48006840F480305B
:1003A0006A49086000BF6948006800F400300090A6
:1003B0000198401C0190009818B90198B0F5A06F01
:1003C000F1D16248006800F4003010B101200090C3
:1003D00001E0002000900098012843D15C480068AB
:1003E00040F010005A4908600846006820F00300F9
:1003F00008600846006840F0020008605348406802
:10040000524948600846406848600846406840F4E1
:10041000806048600846406820F47C1048600846C8
:10042000406840F4E81048600846006840F080707A
:10043000086000BF4548006800F000700028F9D04F
:100440004248406820F00300404948600846406840
:1004500040F00200486000BF3C48406800F00C00DB
:100460000828F9D10CBD10B5FFF792FF10BD10B5EB
:100470003648006840F0010034490860084640688A
:10048000344908403149486008460068324908400C
:100490002E4908600846006820F48020086008465D
:1004A000406820F4FE0048604FF41F008860FFF7AA
:1004B000DAFF4FF000602949086010BD10B5002137
:1004C00000200022214B5B6803F00C0121B10429BC
:1004D00006D0082928D107E0214B224C236027E0D1
:1004E0001F4B204C236023E0184B5B6803F4701013
:1004F000164B5B6803F48032022303EB904022B971
:10050000194B4343174C23600DE0104B5B6803F419
:10051000003323B1144B4343124C236003E0104BD0
:100520004343104C236003E00D4B0E4C236000BF8F
:1005300000BF064B5B68C3F303130C4CE15C094B33
:100540001B68CB40074C236010BD00000010024028
:10055000002002400000FFF8FFFFF6FE08ED00E07B
:1005600000127A002C00002000093D00300000201D
:1005700008B50121242002F0A5FD4FF48070ADF8EC
:10058000000010208DF8030003208DF8020069465A
:10059000094802F0DBFA4FF48071074802F083FB50
:1005A0000420ADF800006946044802F0CFFA0421A7
:1005B000024802F078FB08BD000801400014014029
:1005C00008B50121042002F07DFD0220ADF80000F5
:1005D00048208DF803006946474802F0B7FA4FF407
:1005E0008050ADF8000010208DF8030003208DF836
:1005F00002006946404802F0A9FA4FF480513E4893
:1006000002F053FB08BD08B50121142002F05AFD89
:1006100001213A4802F06BFB4FF40040ADF80000B6
:1006200048208DF803006946334802F08FFA2020F5
:10063000ADF8000048208DF803006946304802F00C
:1006400085FA0120ADF8000028208DF803006946E6
:10065000294802F07BFAFFF7B3FF08BD10B5044646
:1006600014B10120274908702648007868B320217A
:10067000234802F0FEFA58B14FF400411E4802F040
:10068000F8FA28B101211C4802F0F3FA01281CD124
:100690000A2000F0A6FB00201A4908702021184803
:1006A00002F0E7FA08B9012010BD4FF400411248EA
:1006B00002F0DFFA08B90220F6E701210E4802F045
:1006C000D8FA012815D10320EEE720210C4802F0CA
:1006D000D0FA01280DD1C103074802F0CAFA012857
:1006E00007D10121044802F0C4FA10B901200549DC
:1006F00008700020D8E70000000801400002300028
:1007000000100140400000201CB5012141F204000E
:1007100002F0D8FCE020ADF8040018208DF80700A6
:1007200003208DF8060001A9C84802F00FFAE02165
:10073000C64802F0B8FAC64802F09AFF0020C54940
:100740000880488088800220C880012008814002FB
:100750004881382088810020C881072008824FF412
:10076000A06002F017FF23208DF8000001208DF813
:1007700001008DF802008DF80300684602F00FFFBB
:1007800001226021B24803F056F8B249B04802F0A5
:1007900095FF0121AE4803F036F81CBD00B587B0C7
:1007A0000121082002F08EFC0121880302F097FC51
:1007B0004FF46040ADF8180018208DF81B0003209E
:1007C0008DF81A0006A9A44802F0C0F94FF4604160
:1007D000A14802F068FAA14802F04AFF0020ADF8F3
:1007E00004004FF48270ADF806000020ADF8080058
:1007F0000220ADF80A000120ADF80C004002ADF86F
:100800000E003820ADF810000020ADF812000720CF
:10081000ADF814004FF4A06002F0BCFE23208DF868
:10082000000001208DF8010000208DF80200012059
:100830008DF80300684602F0B2FE01A9874802F075
:100840003DFF0121854802F0DEFF07B000BD10B575
:1008500004468048848101467D4802F02FFF012133
:100860007B4802F0D0FF10BD10B504467948848162
:1008700001467A4802F022FF0121784802F0C3FFC6
:1008800010BD70B50546002405E0601CC4B2C82C3C
:1008900001DD002070BD0121284603F038F8002852
:1008A000F3D0284602F0E2FFC0B2F3E770B5054688
:1008B0000E46002405E0601CC4B2C82C01DD0020F7
:1008C00070BD0221284603F022F80028F3D03146FB
:1008D000284602F0C9FF00BFF2E770B505460E4694
:1008E000002405E0601CC4B2C82C01DD002070BDEE
:1008F0000221284603F00BF80028F3D031462846A1
:1009000002F0B2FF002405E0601CC4B2C82C01DD77
:100910000020ECE70121284602F0F9FF0028F3D07F
:10092000284602F0A3FFC0B2E1E72DE9F0410446FA
:100930000D46A84600274648844201D10A2703E015
:100940004648844200D10B2709E0454951F8270069
:1009500004F0B8F9C6B231462046FFF7BEFFB8F141
:100960000000A8F101011FFA81F8EED1BDE8F08185
:1009700010B501213B4804F0B2F801281AD13A48D9
:1009800001680068401C384A1060322912D9344985
:1009900009698A68354908693549097804F033F9E5
:1009A00000203349087000212E4803F0CFFD0020BD
:1009B0002D49086001212B4804F0A2F810BD10B5A4
:1009C00000202C4908600121214802F0A0FF0128E5
:1009D0001BD10021234803F0B9FD0021214804F078
:1009E00049F801211F4803F0B1FD1948FFF749FFFD
:1009F000214908701A4908691F49097804F049F922
:100A00001B480078401C1A490870012019490860E9
:100A100010BD10B50121114802F079FF012813D152
:100A20000E48FFF72EFF154908700D494869134914
:100A3000097804F02EF90A4949694A680B4948695E
:100A40000F49098804F0DFF810BD000000080140DC
:100A50000030014070020020000C014000380040CE
:100A600094B100200004004048000020C4B10020E0
:100A700044000020888122424C0000204D000020CC
:100A80004E00002031B57A499DF8002051F822002F
:100A9000002103F040F89DF80000032803D09DF8E2
:100AA0000000092804D10121022002F0FEFA03E02F
:100AB0000121084602F0F9FA6D499DF8002051F82D
:100AC000220002F05BFF9DF8000004282AD09DF868
:100AD00000000A2826D09DF80000052822D09DF8A5
:100AE00000000B281ED09DF80000052801DD61489C
:100AF0000CE09DF80000032801DD5F4806E09DF84A
:100B00000000012801DD5D4800E05D4804465D48C5
:100B100004605D489DF8001050F82100C0685949F4
:100B2000486012E09DF80000092801DD574800E008
:100B3000574804465348046053489DF8001050F845
:100B40002100C06800684F4948609DF800000528F2
:100B500003DD10204B49886002E00020494988608D
:100B60004FF400704749C860002008618020486148
:100B700000208861C86108624FF4805048620020FC
:100B800088623B499DF8002051F822003D4902F05F
:100B900097FF40499DF8002051F822000122402192
:100BA00002F0F4FB32499DF8002051F822000121A7
:100BB00002F0B1FF38BD70B504460D462C4951F81E
:100BC0002400002102F0A7FF294951F824002946FA
:100BD00002F0B6FF264951F82400012102F09BFFE4
:100BE00070BD70B504460D46214951F8240000211E
:100BF00002F091FF1E4951F82400294602F0A0FF9F
:100C00001B4951F82400012102F085FF70BD10B589
:100C100000220221204802F08AFF00211E4802F033
:100C20007AFF10BD10B5002202211B48143802F0D3
:100C30007EFF00211848143802F06DFF10BD10B57A
:100C4000002202211448283002F071FF00211248CE
:100C500002F061FF10BD10B5002202210E481430D1
:100C600002F065FF00210C48143002F054FF10BD63
:100C700050000020044C0040044800400444004060
:100C8000043801408402002094B100200C38004058
:100C90000C30014084000020300002400EB5FFF708
:100CA000B2FC0121084602F00DFA0121002002F0F9
:100CB00063F80220019000208DF8080008208DF8CC
:100CC000090001208DF80A0001A802F08FFF07201B
:100CD0008DF8000000208DF8010001208DF8020041
:100CE0008DF80300684602F05AFC0EBD10B50A20CC
:100CF00000F077F8012003490870022002F0EDFFB0
:100D000010BD00003A0200207FB505460C460121C7
:100D1000022002F0E4F9ADF80850ADF804400020DC
:100D2000ADF80A00ADF8060001A90E4803F0B2F8CC
:100D3000012211460B4803F024FC1D208DF8000011
:100D400001208DF8010003208DF8020001208DF8AC
:100D50000300684602F023FC0021024803F0F6FB82
:100D60007FBD00000004004010B56FF0040002F0E9
:100D700060FC2E4800682E49B0FBF1F02D49087048
:100D80000846007800EB4001C1EBC0104FF6FF7140
:100D900001EAC0002849088010BD0146254A1278A2
:100DA0004A434FF0E0235A6100229A611A461269C1
:100DB00042F001021A6100BF4FF0E022106900F01A
:100DC00001021AB100F48032002AF5D04FF0E0227F
:100DD000126922F001024FF0E0231A6100229A61A9
:100DE00070470146144A12884A434FF0E0235A6183
:100DF00000229A611A46126942F001021A6100BF8C
:100E00004FF0E022106900F001021AB100F48032C4
:100E1000002AF5D04FF0E022126922F001024FF0D3
:100E2000E0231A6100229A61704700002C00002024
:100E300000127A00800000208200002030BF70473E
:100E400072B6704762B6704700BF0E4B28220EA1E3
:100E500012A004F08DFB18A004F08AFB1BA004F084
:100E600087FB00BF00BF1A48006800F4E060194922
:100E70000843001D16490860BFF34F8F00BF00BF35
:100E8000FEE70000D05A00082E2E5C5359535445FB
:100E90004D5C7379735C7379732E63005761726E66
:100EA000696E672120257320282564293A20222590
:100EB0007322200A000000005379732077696C6C5C
:100EC0002072657365742121210000000D0A000065
:100ED0000CED00E00000FA05014600BF704700BFBE
:100EE000FE4A128802F04002002AF9D0C2B2FB4B3F
:100EF0001B1D1A80704770B504460D46F84951F81D
:100F00002400294602F07EFA00BFF54951F824007A
:100F1000802102F0E5FA0028F7D070BD70B50646D2
:100F20000C46154604E014F8011B3046FFF7E3FFBA
:100F3000281EA5F10101CDB2F5D170BD31B5E94949
:100F40009DF8002051F82210E74A9DF8003052F831
:100F50002320114341F00100012102F0B3F89DF874
:100F60000000012801DA012000E00020044644B11D
:100F7000DE499DF8002051F82200012102F0A2F87C
:100F800007E0DA499DF8002051F82200012102F023
:100F9000A6F8D3499DF8002051F8220002F0F6F897
:100FA0001820D349C870D3489DF8001030F81100BC
:100FB000CF49088003208870CF499DF8002051F860
:100FC0002200CB4901F0C2FD0420C949C870CB48BA
:100FD0009DF8001030F81100C5490880C8499DF8F7
:100FE000002051F82200C24901F0B0FD38BD70B5B3
:100FF00006460C461546C34810F81600C24908704C
:101000000846447085700120C870084602F0C7FA8F
:1010100070BDBE4A11600022BC4B9A80DA801A81F2
:101020009A810C225A81704701B59DF8000030B1B9
:1010300001280BD0022810D003281CD114E0002076
:10104000FFF720FD0620FFF71DFD14E00120FFF74C
:1010500019FD0720FFF716FD0DE00220FFF712FD36
:101060000620FFF70FFD06E00320FFF70BFD092028
:10107000FFF708FD00BF00BF08BD7FB50C46154651
:101080001E469DF80000FFF759FF324629469DF89D
:101090000000FFF7ACFF012C02D14FF416541FE003
:1010A000022C02D14FF461541AE0032C02D14FF408
:1010B000964415E0042C02D14FF4164410E0052CA0
:1010C00002D14DF6C0240BE0062C01D1904C07E074
:1010D000072C02D14FF4E13402E0082C00D18D4CF2
:1010E00021469DF80000FFF794FF9DF80000FFF7F0
:1010F0009BFF7B499DF8002051F82200834902F0B4
:1011000088F877499DF8002051F82200012240F22A
:10111000244102F016F972499DF8002051F822008E
:10112000012102F002F900BF6D499DF8002051F83D
:101130002200402102F0D4F90028F5D07FBD10B57F
:1011400075488378027807210020FFF796FF7248E0
:101150008379027907210120FFF78FFF6E48837A98
:10116000027A07210220FFF788FF6B48837B027B0E
:1011700007210320FFF781FF002415E0072004EB7F
:101180004401664A5054644810F8240004EB4401BA
:1011900011444870604800EB8400807804EB4401FF
:1011A00011448870601CC4B2042CE7DB10BD70B51C
:1011B00004460D4660002946FFF713FD70BD10B5CB
:1011C00040F22441454802F0A1F9002842D0002114
:1011D000534802F0A0FC414800884048001D0088A8
:1011E0004F4802F0AFFC4F49088008460088C0F520
:1011F00000704D490968496808444B4909684860CE
:10120000474802F09FFC49490880474800688088A9
:10121000454909680989401AC0F30800424909682C
:101220000880414B1B689A683F4B1B681988404BEC
:10123000186803F0E8FC40F22441284802F090F9D5
:101240003C48007840F008003A49087001213448D1
:1012500002F061FC10BD10B540F22441364802F0A6
:1012600055F9002877D000212D48143002F053FCA6
:10127000314800883048001D00882948143002F0A9
:1012800061FC28490880284840684068006800F5EB
:1012900000700988401A24494968C9680968B0FB88
:1012A000F1F201FB12002049496848601C481430E3
:1012B00002F048FC1D4908801B48406840680088CF
:1012C0001949496889680988401AC0F30800164915
:1012D0004968088040F22441174830E00038014056
:1012E00084000020EC5A0008FC5A0008DC5A000870
:1012F000B80000200C5B000894000020145B00087C
:10130000A40000201C5B0008BC000020BC020020E0
:1013100000CA0800D0F50200245B0008B0020020DB
:1013200058000240C400002094B10020C2000020F8
:10133000C4B1002038020020004400400BE002F05D
:101340000FF95348007840F004005149087001211A
:10135000504802F0E0FB10BD10B540F224414E4869
:1013600002F0D4F8002846D000214A483C3802F068
:10137000D2FB494800884848001D008845483C3851
:1013800002F0E0FB454908804548806840680068F5
:1013900000F500700988401A41498968C9680968E0
:1013A000B0FBF1F201FB12003D4989684860394801
:1013B0003C3802F0C7FB3B490880394880684068E8
:1013C00000883749896889680988401AC0F308008D
:1013D00033498968088040F224412F4802F0C0F860
:1013E0002B48007840F00200294908700121294863
:1013F0003C3802F090FB10BD10B540F224412A4861
:1014000002F084F8002842D00021284802F083FB33
:10141000254800882448001D0088244802F092FBDB
:101420001E4908801E48C0684068006800F50070CA
:101430000988401A1A49C968C9680968B0FBF1F2FD
:1014400001FB12001649C9684860184802F07AFB8F
:10145000144908801248C068406800881049C9686B
:1014600089680988401AC0F308000D49C9680880D6
:1014700040F224410C4802F073F80548007840F02F
:101480000100034908700121084802F044FB10BD27
:10149000380200206C00024000480040C4000020D8
:1014A00094B10020C2000020004C004030040240F3
:1014B0000648804706480047FEE7FEE7FEE7FEE7EE
:1014C000FEE7FEE7FEE7FEE7FEE7FEE76F04000843
:1014D0003101000870B503460C4603E014F8015BC7
:1014E00003F8015B151EA2F10102F7D170BD30B502
:1014F000034601E003F8011B141EA2F10102F9D119
:1015000030BD10B504467C4951F824104A007B498F
:1015100051F824000021FFF7EAFF794951F824200F
:101520007649083951F824000021FFF7E0FF012136
:1015300072480830015510BD10B501460023002245
:1015400007E06E4850F8210030F8120000B15B1C33
:10155000521C694850F821009042F2D86420584348
:10156000654C54F82140B0FBF4F0C0B210BD2DE939
:10157000F04704460F460025A94660480830005D44
:1015800020B95E4810380168204688471FB94FF0DF
:10159000FF30BDE8F0875B4850F82400B7FBF0F05F
:1015A00086B2584850F82400B7FBF0F100FB1170E8
:1015B00008B1701C86B2504850F82400451E22E045
:1015C0004E4850F8240030F8150020B909F1010008
:1015D0001FFA80F901E04FF00009B14512D14FF038
:1015E000000808E0454850F8240005EB080120F801
:1015F000116008F10108B045F4D3424850F82400C6
:101600006843C6E76D1E002DDADA4FF0FF30C0E701
:101610002DE9F04104460E4638480830005D38B9DF
:10162000364810380168204688470120BDE8F0811F
:10163000334850F82400B04217D9324850F82400FB
:10164000B6FBF0F12D4850F8240030F811200025A9
:1016500007E00023294850F824004F1920F81730DC
:101660006D1C9542F5DB0020E0E70220DEE770B557
:1016700005460C4604B970BD2048083850F82500CE
:10168000261A31462846FFF7C3FF00BFF3E770B5BF
:1016900004460E4631462046FFF769FF0546681CA2
:1016A00008B9002070BD1548083850F824002844B7
:1016B000F8E72DE9F04104460F461646314620462C
:1016C000FFF755FF0546681C10B90020BDE8F08102
:1016D0000A49083951F82410481932463946FFF7AB
:1016E000F9FE39462046FFF7C2FF0448083850F893
:1016F00024002844EAE70000345B0008D8000020FA
:10170000445B00083C5B000810B594B004464023DD
:1017100013AA03A9204600F0BDFF0090009810B165
:10172000012014B010BD9DF84C000444002013901B
:101730000EE057489DF84C2050F8221003A800F006
:1017400011FF00B908E09DF84C00401CC0B2139096
:101750009DF84C000728ECD300BF9DF84C000728EB
:101760007ED2DFE800F004053F619392910000BF54
:1017700048A003F0FDFE48A003F0FAFE56A003F0D7
:10178000F7FE65A003F0F4FE70A003F0F1FE7DA06B
:1017900003F0EEFE8AA003F0EBFE99A003F0E8FE52
:1017A0003CA003F0E5FEA5A003F0E2FEACA003F030
:1017B000DFFEB1A003F0DCFEB5A003F0D9FEBBA0B4
:1017C00003F0D6FEC0A003F0D3FECDA003F0D0FE00
:1017D000D9A003F0CDFEE5A003F0CAFEF0A003F00F
:1017E000C7FE85E22BA003F0C3FEFB4803F0C0FE5A
:1017F000002013900EE0F94800689DF84C2000EBA3
:10180000C2004168F6A003F0B3FE9DF84C00401CF6
:10181000C0B21390F148007D9DF84C108842EADC7C
:101820001CA003F0A5FE63E21AA003F0A1FEEE489F
:1018300003F09EFE002013901CE0E84909689DF823
:101840004C2001EBC20101AB02AA486803A900F0D9
:1018500047FFE24800689DF84C1050F8312000E046
:1018600044E203A9E1A003F083FE9DF84C00401C74
:10187000C0B21390D948007D9DF84C108842DCDC42
:1018800004A003F075FE33E211E2E5E1B8E10000E7
:10189000E40000200D0A00002D2D2D2D2D2D2D2DC5
:1018A0002D2D2D2D2D2D2D2D2D2D2D2D2D2D2D2D68
:1018B00055534D4152542056312E302D2D2D2D2D66
:1018C0002D2D2D2D2D2D2D2D2D2D2D2D2D2D2D2D48
:1018D0002D2D2D200D0A0000B4AEBFDAB5F7CAD405
:1018E000BBA5BDBBD7E9BCFE2CD4DA40D5FDB5E322
:1018F000D4ADD7D355534D415254332E33B0E6B106
:10190000BEBBF9B4A1C9CFBDF8D0D0D2C6D6B2B74C
:10191000E2D7B02E0D0A0000B7E2D7B0B2BFB7D6FB
:101920006170692CB6D4D7E9BCFEBDF8D0D0B7E25F
:10193000D7B0B3C9BFE2A3A1D0C2D4F6D6A7B3D65D
:10194000746162B9A6C4DC0D0A000000CDA8B9FD1F
:10195000B4AEBFDAB5F7D3C3B3CCD0F2C0EFC3E6B1
:10196000B5C4C8CEBACEBAAFCAFD2CB2A2D6B4D0D6
:10197000D02ED2F2B4CB2CC4E3BFC9D2D4CBE6D2A2
:10198000E20D0A00B8FCB8C4BAAFCAFDB5C4CAE4D7
:10199000C8EBB2CECAFD28D6A7B3D6CAFDD7D62883
:1019A00031302F3136BDF8D6C62CD6A7B3D6B8BA4B
:1019B000CAFD29A1A2D7D6B7FBB4AE0D0A0000001C
:1019C000A1A2BAAFCAFDC8EBBFDAB5D8D6B7B5C8C1
:1019D000D7F7CEAAB2CECAFD292CB5A5B8F6BAAFB4
:1019E000CAFDD7EEB6E0D6A7B3D63130B8F6CAE412
:1019F000C8EBB2CECAFD2CB2A2D6A7B3D60D0A0050
:101A0000BAAFCAFDB7B5BBD8D6B5CFD4CABE2ED6ED
:101A1000A7B3D6B2CECAFDCFD4CABEBDF8D6C6C90A
:101A2000E8D6C3B9A6C4DC2CD6A7B3D6BDF8D6C6B3
:101A3000D7AABBBBB9A6C4DC2E0D0A0055534D4135
:101A40005254D3D037B8F6CFB5CDB3C3FCC1EE28CE
:101A5000B1D8D0EBD0A1D0B4293A0D0A00000000D3
:101A60003F3A202020202020BBF1C8A1B0EFD6FAB9
:101A7000D0C5CFA20D0A000068656C703A20202006
:101A8000BBF1C8A1B0EFD6FAD0C5CFA20D0A0000B5
:101A90006C6973743A202020BFC9D3C3B5C4BAAFF0
:101AA000CAFDC1D0B1ED0D0A0A00000069643A20F8
:101AB00020202020BFC9D3C3BAAFCAFDB5C4494452
:101AC000C1D0B1ED0D0A0A006865783A20202020C7
:101AD000B2CECAFD3136BDF8D6C6CFD4CABE2CBAF6
:101AE000F3B8FABFD5B8F12BCAFDD7D6BCB4D6B47B
:101AF000D0D0BDF8D6C6D7AABBBB0D0A0A000000DD
:101B00006465633A20202020B2CECAFD3130BDF892
:101B1000D6C6CFD4CABE2CBAF3B8FABFD5B8F12B0B
:101B2000CAFDD7D6BCB4D6B4D0D0BDF8D6C6D7AAD5
:101B3000BBBB0D0A0A00000072756E74696D653AD0
:101B4000312CBFAAC6F4BAAFCAFDD4CBD0D0BCC624
:101B5000CAB13B302CB9D8B1D5BAAFCAFDD4CBD0BD
:101B6000D0BCC6CAB13B0D0A0A000000C7EBB0B436
:101B7000D5D5B3CCD0F2B1E0D0B4B8F1CABDCAE487
:101B8000C8EBBAAFCAFDC3FBBCB0B2CECAFDB2A2AD
:101B9000D2D4BBD8B3B5BCFCBDE1CAF82E0D0A0047
:101BA0002D2D2D2D2D2D2D2D2D2D2D2D2D2D2D2D65
:101BB0002D2D2D2D2D2D2D2D2D2D2D2D2D2D2D2D55
:101BC0002D2D2D2D2D2D2D2D2D2D2D2D2D2D2D2D45
:101BD0002D2D2D200D0A0000F45B0008300100209F
:101BE00025730D0A00000000AC5B00082573206916
:101BF000642069733A0D0A3058253038580D0A00B0
:101C0000AFF2703003F0B4FC13AA03A9204600F031
:101C100043FE9DF84C00C8B9694603A800F0D5FC06
:101C200013909DF84C0020B9FDA0009903F0A0FC92
:101C30000EE09DF84C00042801D0022071E5FBA0C5
:101C400003F096FC0120FE49C87501E0022068E51A
:101C5000F5A003F08DFC4BE0F3A003F089FC13AA80
:101C600003A9204600F018FE9DF84C00C8B969464B
:101C700003A800F0AAFC13909DF84C0020B9F1A035
:101C8000009903F075FC0EE09DF84C00042801D08B
:101C9000022046E5EEA003F06BFC0020E849C87581
:101CA00001E002203DE5E0A003F062FC20E0DEA0C0
:101CB00003F05EFC13AA03A9204600F0EDFD9DF899
:101CC0004C0068B9694603A800F07FFC13909DF8AA
:101CD0004C0018B9E34803F04BFC03E0022020E578
:101CE00002201EE5D0A003F043FC01E0012018E52E
:101CF00000BF002015E5DC4A1060DC4A1160704727
:101D000010B504460120CE49C875D9480188D94884
:101D1000FFF7F1FF10BD30B5A5B0054623AB22AAF1
:101D200011A9284600F0DCFC044614B1204625B079
:101D300030BD0020249026E0C14909689DF890201C
:101D400001EBC20123AB21AA486801A900F0C8FC3D
:101D500004460CB12046EAE711A901A800F002FCF4
:101D600060B99DF884009DF88810884201DD02204A
:101D7000DDE79DF89000B24988750AE09DF8900073
:101D8000401CC0B22490AE48007D9DF8901088425F
:101D9000D2DC00BFAA48007D9DF89010884201D196
:101DA0000420C4E724A9284600F0E7FD04460CB14E
:101DB0002046BCE79DF89000A14948750020B6E791
:101DC0002DE9F041A2B09E48847D007DA04202DC56
:101DD00022B0BDE8F0819A49096801EBC40106AB65
:101DE00007AA486808A900F07BFC08A9A2A003F094
:101DF000BFFB002644E09248008B0121B14008401F
:101E0000D8B122219EA003F0B3FB304600F0A8FD1C
:101E10008B492431471839469AA003F0A9FB2221A7
:101E200097A003F0A5FB304600F09AFD84492431C9
:101E3000084418A941F8260018E0304600F090FD4B
:101E40007F492431085818A941F826007C48C07DF4
:101E500030B918A850F826108BA003F089FB05E0D4
:101E600018A850F8261089A003F082FB9DF81C00EA
:101E7000401EB04202D087A003F07AFB701CC6B2AD
:101E80009DF81C008642B6DB83A003F071FB6C4812
:101E9000407D0B280DD2DFE800F0060D151E27321D
:101EA0003F4E5F7287006649096851F834008047E9
:101EB000054690E0624A126852F834101898884734
:101EC000054688E05E4B1B6853F83420DDE91801B5
:101ED000904705467FE05A4F3F6857F8343018A8BE
:101EE00007C89847054676E0DFF854C1DCF800C023
:101EF0005CF8347018A80FC8B84705466BE01C980A
:101F0000DFF83CC10090DCF800C05CF8347018A821
:101F10000FC8B84705465EE0DDE91C01DFF820C1C7
:101F2000CDE90001DCF800C05CF8347018A80FC8D7
:101F3000B84705464FE0DDE91C121E98DFF800C1E6
:101F4000CDE900120290DCF800C05CF8347018A8EB
:101F50000FC8B84705463EE0DDE91C23DDE91E1049
:101F6000DFF8DCC0CDE90023CDE90210DCF800C0C9
:101F70005CF8347018A80FC8B84705462BE0DDE9B7
:101F80001D23DDE91F10CDE90123CDE903101C98C5
:101F9000DFF8ACC00090DCF800C05CF8347018A822
:101FA0000FC8B847054616E0DDE91E23DDE920101D
:101FB000CDE90223CDE90410DDE91C01DFF880C082
:101FC000CDE90001DCF800C05CF8347018A80FC837
:101FD000B847054600BF00BF9DF8180001280CD186
:101FE0001748C07D20B929462CA003F0C1FA07E0AC
:101FF00029462CA003F0BCFA02E029A003F0B8FAAD
:102000000F4890F8EC0048B10D48D0F8F0000A21D4
:10201000B0FBF1F201FB1207094849E051E0000072
:102020004845583A305825580D0A00003136BDF859
:10203000D6C6B2CECAFDCFD4CABE210D0A0000005A
:10204000300100204445433A256C750D0A0000001C
:102050003130BDF8D6C6B2CECAFDCFD4CABE210D2E
:102060000A0000003C5C0008040100200001002080
:102070004C5B000894AD00200D0A25732800000079
:102080002563000025730000256C64003058255836
:10209000000000002C000000290000003D256C75A8
:1020A0003B0D0A003D305825583B0D0A000000004A
:1020B000D0F8F000B0FBF1F83A464146E5A003F055
:1020C00057FA00BF84E6012807D002280CD0042864
:1020D00011D0B0F5004F1FD114E0E649098821F076
:1020E0000101E44A118018E0E249098821F0020167
:1020F000E04A118011E0DF49098821F00401DD4A3E
:1021000011800AE0DB49098821F40041D94A118095
:102110000021D94A118000E000BF00BF704710B510
:102120000446204603F078F9D34908800846008821
:1021300020B90020D1490968087004E02146CF4841
:10214000006803F070F910BD0146CB480088088094
:10215000CA480068704701460020012907D00229BB
:102160000CD0042911D0B1F5004F1CD114E0C14AA4
:10217000127802F0010202B1012015E0BD4A127886
:1021800002F0020202B101200EE0BA4A127802F017
:10219000040202B1012007E0B64A128802F40042AC
:1021A00002B1012000E000BF00BF7047F0B5ADF5FF
:1021B000437D4FF40040FFF7CEFF002838D0C2A87F
:1021C000FFF7C2FF0746AE48816838468847064693
:1021D0001EB9AB49C868804725E03846FFF794FA36
:1021E000C290BDF80803012802D0BDF80803C6B2AA
:1021F000CEB1012E06D0022E08D0032E0AD0042E16
:1022000010D10BE09FA003F0B3F90BE0A0A003F006
:10221000AFF907E0A1A003F0ABF903E0A2A003F03F
:10222000A7F900BF00BF4FF40040FFF74CFF89E063
:102230000420FFF790FF0028F9D000250420FFF7C5
:1022400042FFC2A8FFF780FF0746002421E08C4927
:10225000096801EBC401C1ABC0AA4868B0A900F08D
:102260003FFABDF80823B0A9384603F0E5F870B985
:10227000834A126802EBC402516810AA02EB85106F
:1022800003F0D1F8681CC5B20A2D00D105E0601C2E
:10229000C4B27B48007DA042D9DC00BF012D1AD119
:1022A000C1ABC0AAB0A910A800F01AFA06460024D3
:1022B00004E082A003F05CF9601CC4B2BDF808031E
:1022C0008442F6DBB0A8FFF72AFF3946AFF24C2074
:1022D00003F04EF935E0012D26DD294679A003F003
:1022E00047F97CA003F044F9002407E010A800EBB4
:1022F00084117FA003F03CF9601CC4B2AC42F5DB52
:102300007DA003F035F9BDF808233946684603F08F
:1023100077F80020BDF808230DF802006946AFF2F7
:102320009C2003F025F90CE04FF40040FFF7CBFEB2
:1023300071A003F01DF978A003F01AF96EA003F064
:1023400017F900BF0DF5437DF0BD014608687047E1
:102350000160704770B505466CB24648008800F4CD
:102360000040002874D171480078002864D1202CE6
:102370001EDB7F2C1CDCE0B200F0ECF83F49096862
:102380003D4A12888C543C480088401C3A490880D9
:1023900067480068401E0988884259D2354800883D
:1023A00040F00200334908800020334908804FE0A4
:1023B0000D2C19D13048008830B12E48008840F4E7
:1023C00000402C49088008E05AA003F0D1F82948C1
:1023D000008840F00100274908800020274909684B
:1023E000254A1288885433E0082C16D122480088E8
:1023F00018B900202049088008E0214652A003F0C7
:10240000B7F81D480088401E1B49088000201B4962
:102410000968194A128888541AE0092C06D115480F
:10242000008840F004001349088011E01B2C0FD1F4
:1024300001203E4908700BE045480078401CC0B2BE
:1024400043490870022803D10020087037490870FA
:1024500070BD000046756E6374696F6E2052756EB4
:102460002054696D653A25642E2531646D730D0A1B
:1024700000000000080100200A01002004010020E3
:1024800030010020BAAFCAFDB4EDCEF3210D0A0031
:10249000B2CECAFDB4EDCEF3210D0A00B2CECAFD14
:1024A000CCABB6E0210D0A00CEB4D5D2B5BDC6A5E1
:1024B000C5E4B5C4BAAFCAFD210D0A00081B5BFF15
:1024C000500000000D0A2564B8F6C6A5C5E4BAAFF1
:1024D000CAFD00000D0A3D3D3D3D3D3D3D3D3D3DBC
:1024E0003D3D3D3D3D3D3D3D3D3D3D3D3D3D3D0059
:1024F0000D0A2573000000000D0A3D3D3D3D3D3DA8
:102500003D3D3D3D3D3D3D3D3D3D3D3D3D3D3D3DFB
:102510003D3D3D0D0A0000000D0A2020202020CE68
:10252000DEC6A5C5E4BAAFCAFD0000000C0100205C
:10253000000100200D0A5B726F6F74405465726D6C
:10254000696E616C5D00000025631B5BFF5000003D
:102550000D01002010B5044621460120FEF7CBFCFA
:1025600010BD000002460AE010780B78984201D0B6
:1025700001207047107800B902E0521C491CF3E7B3
:1025800000BF0020F5E706E002780A70027802B981
:1025900002E0401C491CF7E700BF704701460020DD
:1025A00005E00A7802B903E0421CD0B2491CF8E702
:1025B00000BF704710B50246012000E050430B1EDB
:1025C000A1F10104E1B2F9D110BD2DE9F0430746B4
:1025D0000E4600254FF00A083C46002030601FE000
:1025E0002078392802DC207830280ADA207846283A
:1025F00002DC2078412804DA2078582809D1012DFE
:1026000007D12078412801DB4FF01008681CC5B2C3
:1026100005E0207800B904E00120BDE8F083641CE7
:10262000DEE700BF3C46B8F1100F0FD1032D01DAF1
:102630000220F2E72078302806D16078582803D1AC
:10264000A41CA81EC5B204E00320E6E70DB90420CF
:10265000E3E71BE00DB1681EC5B22078392806DC1F
:102660002078302803DB2078A0F1300902E02078C0
:10267000A0F1370929464046FFF79CFF316809FB66
:1026800000103060641C207800B900E0E2E700BF71
:102690000020C2E710B50446002010700BE020783F
:1026A0000870641C491C1078401C10701078984207
:1026B00001DB012010BD2078202802D020780028DE
:1026C000EDD10020087000BFF4E70146491C00E08E
:1026D000491C0878202801D10029F9D108787047D1
:1026E0002DE9FF4F85B080468946002700200490E1
:1026F0000390012002904FF0000B002544461DE09E
:102700002078202816D005F07F00052812DA0DB9B0
:1027100045F0800505F07F00042803D120782A28A1
:1027200000D00EE0207805F07F010DF80100681C54
:10273000C5B202E0852D00D103E0641C207800289A
:10274000DED100BF8DB1002005F07F010DF8010042
:10275000CBA16846FFF706FF18B900210898017061
:1027600002E001210898017000254FF0000A44465C
:1027700014E0641C0AF1010000F0FF0A2078202810
:1027800002D020782A2809D12046FFF79EFF06466E
:10279000282E03D02A2E01D0CDF810A0207828288A
:1027A00002D020780028E4D14446049810B104985F
:1027B000401C04444FF0000A002654E0207810B971
:1027C0004FF0010A50E02078282803D116B9781C70
:1027D000C7B213E02078292808D13EB917B1781E76
:1027E000C7B201E04FF0010A47B93DE02078222846
:1027F00004D10EB9012000E00020064647B9207838
:1028000020282FD0207889F8000009F1010929E05B
:1028100020782C2804D101200290681CC5B214E055
:102820002078202811D0207828280ED04DB9BBF16F
:10283000050F06DA20780DF80B000BF1010000F00F
:10284000FF0B0298401CC0B20290012F0AD10298DF
:10285000022807D10298401CC0B202900398401C85
:10286000C0B20390641CA9E700BF0398012809D1F6
:1028700000200DF80B0082A16846FFF773FE08B92F
:1028800000200390079903980870002089F8000041
:10289000504609B0BDE8F08FF0B50346154600205C
:1028A00000220026002455E01F782C2F01D104B906
:1028B00001221F78292F01D01F780FB904B94AE0EF
:1028C000002E34D11F78302F02DB1F78392F11DD15
:1028D0001F78612F02DB1F78662F0BDD1F78412FD9
:1028E00002DB1F78462F05DD1F78582F02D01F7896
:1028F000782F0CD102B12EE01F78612F03DB1F78F7
:10290000203F0F7001E01F780F70491C1FE01F78F7
:10291000222F04D102B11EE00126012417E01F7806
:10292000202F14D01F782C2F11D0FF2613E01F78F2
:10293000222F00D1002402B10DE044B11F785C2F9A
:1029400002D15B1C471CF8B21F780F70491C471C52
:10295000F8B25B1CA8E700BF00270F702E70F0BD17
:1029600002460020002105E0474B5B5C0344D8B2DF
:102970004B1CD9B29142F7DB70472DE9F043B5B05B
:1029800005460F460024002604E000213E488155FC
:10299000701CC6B20A2EF8DB06E06D1C287818B948
:1029A000012035B0BDE8F08328782828F5D16D1CCA
:1029B00061E034AA69462846FFF76EFF06463544B3
:1029C0009DF8D00020B1012827D0FF284CD149E044
:1029D0009DF8000000B333A96846FFF7F6FD0646F0
:1029E0000EB10220DDE72046FFF7BAFF26490A3183
:1029F000339A0A50A1F12400008B0121A1408843A1
:102A000021491A39088304211F480155601CC4B2AA
:102A10000A2C01DD0320C4E726E06846FFF7BEFD6F
:102A2000401C00F0FF082046FFF79AFF16490A31C4
:102A300000EB010949466846FFF7A5FD12481A3820
:102A4000018B0120A040014388B20F491A39088345
:102A50000D4800F80480601CC4B20A2C01DD03207C
:102A60009FE701E002209CE700BF2878292801D0D9
:102A7000287800B900E09CE700BF3C70002090E798
:102A8000766F6964000000004A01002010B504461A
:102A9000CC48844208D10121042000F02DFB002104
:102AA000042000F029FB46E0C748844208D10121F8
:102AB000082000F021FB0021082000F01DFB3AE077
:102AC000C248844208D10121102000F015FB0021EA
:102AD000102000F011FB2EE0BD48844208D10121F6
:102AE000202000F009FB0021202000F005FB22E05F
:102AF000B848844208D10121402000F0FDFA0021AD
:102B0000402000F0F9FA16E0B348844208D10121D0
:102B1000802000F0F1FA0021802000F0EDFA0AE0B8
:102B2000AE48844207D10121801500F0E5FA00216A
:102B3000A01500F0E1FA10BD10B50121084600F023
:102B4000DBFA0021012000F0D7FA10BD2DE9F04199
:102B5000024600250026002000230024002791F8CB
:102B600003C00CF00F0591F803C00CF0100CBCF181
:102B7000000F03D091F802C04CEA050591F800C09F
:102B8000BCF1000F31D0146800202BE04FF0010C95
:102B90000CFA00F3B1F800C00CEA03069E4220D103
:102BA00083004FF00F0C0CFA03F7BC4305FA03FC4B
:102BB0004CEA040491F803C0BCF1280F06D14FF091
:102BC000010C0CFA00FCC2F814C00AE091F803C032
:102BD000BCF1480F05D14FF0010C0CFA00FCC2F813
:102BE00010C0401C0828D1D31460B1F800C0BCF15B
:102BF000FF0F34DD546800202EE000F1080C4FF088
:102C0000010808FA0CF3B1F800C00CEA03069E4272
:102C100021D183004FF00F0C0CFA03F7BC4305FAE7
:102C200003FC4CEA040491F803C0BCF1280F05D161
:102C300000F1080C08FA0CF8C2F8148091F803C0EF
:102C4000BCF1480F07D100F1080C4FF0010808FA59
:102C50000CF8C2F81080401C0828CED35460BDE8A0
:102C6000F0814FF6FF710180022181700421C17053
:102C700070470246002093680B400BB1012000E032
:102C8000002070470146886880B2704702460020E5
:102C9000D3680B400BB1012000E0002070470146D3
:102CA000C86880B2704701617047416170470AB1DE
:102CB000016100E041617047C16070474FF48032AC
:102CC0000A4382618161826182698269704702463A
:102CD0000020434B18684FF68073184040EA0210FA
:102CE00008433F4B186070473E49C8617047F0B5D4
:102CF0000A46002300240021002500F00046B6F11A
:102D0000004F02D1364EF16901E0354E7168C0F3D3
:102D1000034583B200F44016B6F5401F08D121F0F8
:102D200070612F4E766826F070662D4F7E6012E03F
:102D300000F48016B6F5801F06D1032606FA05F4C6
:102D4000A14341F0706106E0460D360103FA06F634
:102D5000B14341F0706122B1460D360103FA06F627
:102D6000314300F00046B6F1004F02D11C4EF16134
:102D700001E01B4E7160F0BD30B500228B071C0FC7
:102D80000F2303FA04F2164B08338C1053F8243047
:102D90009343134C08348D1044F8253023468C108F
:102DA00053F824308C07240F00FA04F423430C4C0E
:102DB00008348D1044F8253030BD0A49DC310860F4
:102DC0007047000000080140000C01400010014065
:102DD0000014014000180140001C01400020014087
:102DE0000000014000002042DF48006840F0010080
:102DF000DD49086008464068DC490840DA49486017
:102E000008460068DA490840D74908600846006863
:102E100020F4802008600846406820F4FE004860E6
:102E20004FF41F0088607047CF49096821F4803152
:102E3000CD4A11601146096821F480211160B0F576
:102E4000803F03D0B0F5802F0ED106E0C649096857
:102E500041F48031C44A116007E0C349096841F474
:102E6000A021C14A116000E000BF00BF704710B54B
:102E700001460022002300204A11012A02D1BA4C47
:102E8000236806E0022A02D1B74C236A01E0B64C5F
:102E9000636A01F01F02012494401C400CB1012020
:102EA00000E0002010BD38B500200090002400256F
:102EB00000BF3120FFF7DBFF05460098401C009063
:102EC0000098B0F5A06F01D0002DF2D03120FFF7AF
:102ED000CEFF08B1012400E00024204638BD0146A1
:102EE0000020A14A106820F0F80040EAC1001060FC
:102EF0007047A04908607047024600209A4B586806
:102F000020F47C1042EA01031843974B5860704745
:102F100098490866704701460020934A506820F09F
:102F200003000843506070478F48406800F00C0071
:102F30007047014600208C4A506820F0F00008439A
:102F40005060704701460020874A506820F4E060D6
:102F500008435060704701460020834A506820F4BF
:102F6000605040EAC1005060704729B17E4A527AF1
:102F700002437D4B5A7204E07B4A527A82437A4B79
:102F80005A7270477B49D83108607047014600206B
:102F9000754A506820F44040084350607047002153
:102FA000714A20321170704A82F82010012802D034
:102FB00004280AD104E001216B4A2032117005E097
:102FC0000521694A2032117000E000BF00BF704740
:102FD0006949086070476449096A0143624A11629D
:102FE0007047654944390860704730B500210022B8
:102FF000002400235C4D6D6805F00C0121B104290B
:1030000005D0082923D105E05C4D056022E05B4D29
:1030100005601FE0544D6D6805F47012524D6D68E7
:1030200005F48034022505EB92421CB9544D5543FA
:1030300005600BE04C4D6D6805F400351DB1504D39
:103040005543056002E04D4D5543056002E04B4D90
:10305000056000BF00BF444D6D6805F0F00109092F
:10306000484D6B5C0568DD4045603F4D6D6805F47B
:10307000E061090A434D6B5C4568DD4085603A4D6F
:103080006D6805F46051C90A3E4D6B5C4568DD40D2
:10309000C560354D6D6805F44041890B3A4D6B5C58
:1030A000C568B5FBF3F5056130BD29B12E4A5269FB
:1030B00002432D4B5A6104E02B4A526982432A4B4A
:1030C0005A61704729B1284A92690243264B9A6196
:1030D00004E0254A92698243234B9A61704729B1E3
:1030E000214AD2690243204BDA6104E01E4AD269C8
:1030F00082431D4BDA61704729B11B4AD2680243F3
:10310000194BDA6004E0184AD2688243164BDA6041
:10311000704729B1144A12690243134B1A6104E043
:10312000114A12698243104B1A61704712494039A3
:10313000086070470F49C86470470B49C8717047F1
:103140000948406A40F0807007494862704701466C
:103150000020054A92680A400AB1012000E00020E0
:103160007047014988727047001002400000FFF864
:10317000FFFFF6FE000042428004424200127A0045
:1031800000093D00240200203402002010B504464E
:10319000FB48844209D101218803FFF7ADFF0021DC
:1031A0004FF48040FFF7A8FF32E0F648844209D18F
:1031B00001214804FFF7ADFF00214FF40030FFF775
:1031C000A8FF25E0F048844209D101218804FFF7D7
:1031D000A0FF00214FF48020FFF79BFF18E0EB4891
:1031E000844209D10121C804FFF793FF00214FF465
:1031F0000020FFF78EFF0BE0E548844208D1012153
:103200000805FFF786FF00214FF48010FFF781FFCC
:1032100010BD2DE9F04786B005460E460024A246B3
:1032200000BFA1460027B08900B100BF2F462C8AFD
:103230004CF6FF700440F08804432C82AC894EF6B3
:10324000F3100440B088318908437189084304436E
:10325000AC81AC8A4FF6FF400440B0890443AC8295
:1032600001A8FFF7C2FEC648874202D1DDF810A0D0
:1032700001E0DDF80CA0A88900F4004040B10AEBA1
:10328000CA0000EB0A1031684900B0FBF1F807E012
:103290000AEBCA0000EB0A1031688900B0FBF1F8B4
:1032A0006420B8FBF0F004012009642101FB1089BF
:1032B000A88900F4004040B1322000EBC900B0FB07
:1032C000F1F000F00700044308E0322000EB0910A1
:1032D0006421B0FBF1F000F00F0004432C8106B034
:1032E000BDE8F0874FF41651016000218180C18054
:1032F00001810C21418100218181704710B5024676
:103300000020108A4FF2FF0318400B884C8823439B
:103310008C882343CC8823431843108210BD00219E
:10332000018041808180C180704721B1828942F44F
:103330000052828104E082894DF6FF731A40828137
:103340007047F0B50346002400260025002040F613
:103350006A17B94200D100BF1846C1F3421401F008
:103360001F06012707FA06F5012C01D10C3004E0F5
:10337000022C01D1103000E014301AB107682F433D
:10338000076002E00768AF430760F0BD1AB1838AA7
:103390000B43838202E0838A8B4383827047028AD5
:1033A0004FF6F0731A400282028A0A430282704783
:1033B00082894FF2FF731A40828182890A43828197
:1033C000704721B1828942F00202828104E0828941
:1033D0004FF6FD731A4082817047028A4FF6DF7301
:1033E0001A400282028A0A430282704721B1028A8D
:1033F00042F48042028204E0028A4BF6FF731A40D4
:1034000002827047C1F308028280704701468888B3
:10341000C0F308007047818941F001018181704744
:10342000028BD2B20283028B42EA012202837047EE
:10343000028B02F47F420283028B0A4302837047AD
:1034400021B1828A42F02002828204E0828A4FF611
:10345000DF731A408282704721B1828A42F01002E3
:10346000828204E0828A4FF6EF731A4082827047AC
:1034700021B1828A42F00802828204E0828A4FF6F9
:10348000F7731A408282704721B1828942F4004268
:10349000828103E08289C2F30E028281704721B1EA
:1034A000828A42F40062828204E0828A4FF2FF73D1
:1034B0001A4082827047828A4FF6FB731A408282DA
:1034C000828A0A438282704721B1828A42F00202D4
:1034D000828204E0828A4FF6FD731A40828270472E
:1034E00002460020B1F5007F00D100BF13880B40D9
:1034F0000BB1012000E00020704701F40072B2F52A
:10350000007F00D100BFCA430280704770B50246F9
:10351000002400230025002040F66A16B14200D1A5
:1035200000BFC1F3421501F01F03012606FA03F3A1
:10353000012D02D19689334006E0022D02D1168A70
:10354000334001E0968A33400C12012606FA04F457
:103550001688344013B10CB1012000E0002070BD8A
:1035600010B50022002340F66A14A14200D100BF2A
:103570000A1201249440A3B2DC43048010BD000071
:10358000003801400044004000480040004C00402A
:103590000050004031490143314A1160704770B515
:1035A000002100230F22C47804B32D4C246804F4B6
:1035B000E064C4F5E064210AC1F10403CA40447820
:1035C00004FA03F18478144021430901254C06785C
:1035D000A155047804F01F050124AC4005786D1155
:1035E000AD0005F1E025C5F8004109E0047804F0DC
:1035F0001F050124AC401C4D0678761145F8264085
:1036000070BD1A4A0A400243154B1B1F1A607047CF
:1036100039B1134A121D12680243114B1B1D1A6067
:1036200006E00F4A121D126882430D4B1B1D1A60E3
:103630007047042808D14FF0E021096941F00401E6
:103640004FF0E022116107E04FF0E021096921F01D
:1036500004014FF0E0221161704700000000FA05FC
:103660000CED00E000E400E080E100E080FFFF1FDF
:1036700010B50446BE48844208D101218014FFF7EA
:103680003BFD0021A014FFF737FD16E0B948844246
:1036900008D101210014FFF73CFD00212014FFF7A1
:1036A00038FD0AE0B448844207D10121C013FFF776
:1036B00030FD0021E013FFF72CFD10BD10B50022F6
:1036C000028802F441520B884C8823438C882343A0
:1036D000CC8823430C8923434C8923438C8923437F
:1036E000CC8923431A430280838B4FF2FF7423401B
:1036F00083830B8A038210BD2DE9F04F85B0054608
:103700000C464FF0000902274FF000084FF0010B64
:103710000026B246A88B4FF240010840A883022041
:103720002884B5F81C90A068022801D100BF38E0B9
:10373000A08810B94FF0010B01E04FF0020B8D484B
:10374000854200D100E000BF6846FFF74EFCDDF87F
:1037500000A0E088B0F5007F0AD14FEA1A2000EB04
:1037600080004000A168B0FBF1F0401D86B20BE084
:103770004FEA4B10BAFBF0F000EB80004000A1686C
:10378000B0FBF1F0401D86B20A20B6FBF0F606F061
:103790000108A6EB0800C0F34F074FF6FF7000EAE0
:1037A0000828022F01DBFF2F02DD02274FF000085F
:1037B000E08840EA080038432884A088A1890843AB
:1037C000618808432188084340F4006040EA090901
:1037D000A5F81C9005B0BDE8F08F00210180418064
:1037E0008180C180018141818181C1810721018264
:1037F00070470021018041808180C1800221816069
:1038000000218181704721B1028842F0400202808C
:1038100004E002884FF6BF731A400280704721B15E
:10382000828B42F48062828304E0828B4FF6FF3306
:103830001A408283704730B5002400230C11012503
:10384000A540ABB21AB185881D43858002E085880A
:103850009D43858030BD1AB183880B43838002E08D
:1038600083888B43838070478181704701468889B4
:1038700070474FF6FF62914204D0028842F4807292
:10388000028004E002884FF6FF631A40028070470E
:1038900021B1828842F00402828004E082884FF6DF
:1038A000FB731A408280704702884FF2FF731A4000
:1038B000028002880A4302807047018841F48051E7
:1038C0000180704721B1028842F40052028004E076
:1038D00002884DF6FF731A400280704702460020AE
:1038E000012901D0108B00E0908A70470146088AB8
:1038F0007047B1F5804F04D1028842F480420280C3
:1039000004E002884BF6FF731A40028070470246BB
:10391000002013890B400BB1012000E0002070470C
:10392000CA4302817047F0B50246002000240023FC
:10393000002501F00F070126BE40B4B20B1101268D
:103940009E40B3B2968806EA03051689264016B152
:103950000DB1012000E00020F0BD10B5002201F003
:103960000F040123A3409AB2D343038110BD00008A
:103970000030014000380040003C004001684FF634
:10398000FE72114001600021016041608160C160F0
:103990008D49884208D18C490839496841F00F01A6
:1039A000894A083A51608AE087491431884208D12F
:1039B00085490839496841F0F001834A083A516065
:1039C0007DE081492831884208D17F49083949681A
:1039D00041F470617C4A083A516070E07A493C31A8
:1039E000884208D178490839496841F47041764ADB
:1039F000083A516063E074495031884208D17249F5
:103A00000839496841F470216F4A083A516056E01C
:103A10006D496431884208D16B490839496841F4DD
:103A20007001694A083A516049E067497831884233
:103A300008D165490839496841F07061624A083A1D
:103A400051603CE06149884206D1011F096841F09C
:103A50000F01021F116032E05C491431884208D125
:103A60005A49091F096841F0F001584A121F1160B4
:103A700025E056492831884208D15449091F096870
:103A800041F47061514A121F116018E04F493C31F6
:103A9000884208D14D49091F096841F470414B4AD9
:103AA000121F11600BE049495031884207D1474944
:103AB000091F096841F47021444A121F11607047C0
:103AC00010B50022026847F6F0739A430C6A8B68BF
:103AD00023430C6923434C6923438C692343CC69FA
:103AE00023434C6A23438C6A23431A430260CB6806
:103AF00043600B6883604B68C36010BD00210160A8
:103B000041608160C160016141618161C1610162A7
:103B100041628162704721B1026842F00102026095
:103B200004E002684FF6FE731A40026070471AB153
:103B300003680B43036002E003688B430360704734
:103B4000416070470146486880B2704701460020D6
:103B5000002201F080531BB11C4B083B1A6802E0A5
:103B6000194B083B1A6802EA01030BB1012000E07F
:103B70000020704700F0805119B11449091F0860F6
:103B800002E01149083948607047014600200022D0
:103B900001F080531BB10D4B083B1A6802E00A4B41
:103BA000083B1A6802EA01030BB1012000E0002083
:103BB000704700F0805119B10449091F086002E004
:103BC0000149083948607047080002400804024073
:103BD000002044490860091D0860091D0860091D8E
:103BE000086041483F4914310860704700213D4951
:103BF0008279002A3AD00A46126803689A430B4633
:103C00001A600A1D126803689A430B1D1A60027934
:103C100011440A6803681A430A60324A083212687B
:103C200003689A432F4B08331A601A1D1268036801
:103C30009A432C4B0C331A604279102A0ED11A1F6A
:103C4000126803681A43274B08331A601A1D12685A
:103C500003681A43234B0C331A600DE02149427963
:103C600011440A6803681A430A6005E002791144A6
:103C70000A6803689A430A60704700210160017175
:103C80000C2141710021817170471649103109687A
:103C90000143144A10321160704701460020114A56
:103CA000143212680A400AB1012000E00020704777
:103CB0000C49143108607047014600200022094B6E
:103CC0001B6803EA0102074B14331B680B4013B156
:103CD0000AB1012000E00020704702491431086059
:103CE0007047000000040140FFFF0F0010B50446BC
:103CF000FE48844208D10121C014FFF7FDF90021DC
:103D0000E014FFF7F9F9C4E0B4F1804F08D10121C4
:103D10000846FFF7FEF900210120FFF7FAF9B8E0A5
:103D2000F348844208D101210220FFF7F2F9002173
:103D30000220FFF7EEF9ACE0EE48844208D1012101
:103D40000420FFF7E6F900210420FFF7E2F9A0E0E4
:103D5000E948844208D101210820FFF7DAF900215F
:103D60000820FFF7D6F994E0E448844208D1012105
:103D70001020FFF7CEF900211020FFF7CAF988E0E4
:103D8000DF48844208D101212020FFF7C2F9002139
:103D90002020FFF7BEF97CE0DA48844208D10121F7
:103DA0004014FFF7A9F900216014FFF7A5F970E0AE
:103DB000D548844209D10121C804FFF79DF90021AB
:103DC0004FF40020FFF798F963E0D048844209D10E
:103DD00001210805FFF790F900214FF48010FFF74B
:103DE0008BF956E0CA48844209D101214805FFF702
:103DF00083F900214FF40010FFF77EF949E0C54830
:103E0000844208D101214020FFF783F9002140209E
:103E1000FFF77FF93DE0C048844208D101218020AE
:103E2000FFF777F900218020FFF773F931E0BB48F5
:103E3000844208D101218015FFF76BF90021A015FC
:103E4000FFF767F925E0B648844209D1012108044B
:103E5000FFF752F900214FF48030FFF74DF918E0D9
:103E6000B048844209D101214804FFF745F90021F7
:103E70004FF40030FFF740F90BE0AB48844208D123
:103E800001218804FFF738F900214FF48020FFF763
:103E900033F910BD00220288944B98420ED0994B02
:103EA00098420BD0B0F1804F08D0914B984205D08A
:103EB000904B984202D0904B984204D14FF68F73AA
:103EC0001A404B881A438D4B984207D08C4B98422E
:103ED00004D04FF6FF431A40CB881A4302808B88E8
:103EE00083850B880385814B98420BD0854B984284
:103EF00008D08B4B984205D08A4B984202D08A4B0F
:103F0000984201D10B7A038601238382704770B5F2
:103F1000002400220023058C4FF6FE7635400584F0
:103F2000028C8388048B4FF68F752C40B51E2C4075
:103F30000D882C43751E2A400D892A434D882A433B
:103F40006A4DA8420BD06F4DA84208D0744DA842CC
:103F500005D0744DA84202D0734DA84213D14FF63C
:103F6000F7752A404D892A434FF6FB752A408D8804
:103F70002A434FF6FF652B404FF6FF552B408D89A6
:103F80002B43CD892B4383800483CD88858602848F
:103F900070BD70B5002400220023058C4FF6EF762B
:103FA00035400584028C8388048B48F6FF752C40CD
:103FB0004FF6FF452C400D884FF6FF7606EA0525A3
:103FC0002C434FF6DF752A400D8906EA05152A4372
:103FD0004D8806EA05152A43444DA84202D0494DB2
:103FE000A8421DD14FF67F752A404D894FF6FF76C6
:103FF00006EA05152A434FF6BF752A408D8806EA62
:1040000005152A434FF6FF352B404FF2FF752B4025
:104010008D8906EA85052B43CD8906EA85052B4364
:1040200083800483CD880587028470BD70B5002429
:1040300000220023058C4FF6FF6635400584028C74
:104040008388848B4FF68F752C404FF6FC752C407F
:104050000D882C434FF6FF552A400D894FF6FF7609
:1040600006EA05252A434D8806EA05252A431F4D01
:10407000A84202D0234DA8421DD14FF2FF752A401D
:104080004D894FF6FF7606EA05252A434FF6FF35A0
:104090002A408D8806EA05252A434EF6FF752B40F7
:1040A0004DF6FF752B408D8906EA05152B43CD890A
:1040B00006EA05152B4383808483CD888587028497
:1040C00070BD70B5002200230024058C4EF6FF76EB
:1040D00035400584038C8488828B48F6FF752A401E
:1040E0004FF6FF452A400D8820E00000002C0140DB
:1040F0000004004000080040000C00400010004098
:104100000014004000340140004C014000500140C8
:104110000054014000180040001C004000200040F6
:104120000040014000440140004801404FF6FF7646
:1041300006EA05252A434DF6FF752B400D8906EA50
:1041400005352B434D8806EA05352B43FA4DA84229
:1041500002D0FA4DA84208D14BF6FF752C408D894C
:104160004FF6FF7606EA85152C4384808283CD883E
:10417000A0F84050038470BD828B4FF2FF331A4089
:104180008283828B4FF6FF7303EA01231A438283F3
:104190007047F0B50C461546002200210026078C1A
:1041A0004EF6FF7C07EA0C070784828B018C4FF6E2
:1041B000FF7707EA043640F6FF473A404FF6FF77AD
:1041C00007EA05273A434FF6FF7707EA03373A43F2
:1041D000D94FB8420ED0D94FB8420BD0B0F1804F72
:1041E00008D0D74FB84205D0D64FB84202D0D64FEC
:1041F000B84206D14DF6FF77394046F4805739432F
:1042000005E047F6FF57394044F48057394382832D
:104210000184F0BD828B4FF6F3731A408283828B48
:104220000A4382837047F0B50C46154600220021F0
:104230000026078C4FF6FF6C07EA0C070784828B79
:10424000018C4FF6FF7707EA04264FF60C773A40C9
:104250004FF6FF7707EA03172F433A43B64FB842AA
:104260000ED0B64FB8420BD0B0F1804F08D0B44F4B
:10427000B84205D0B34FB84202D0B34FB84206D1CE
:104280004FF6FF57394046F48077394305E04FF247
:10429000FF57394044F48077394382830184F0BD6D
:1042A000028B4FF2FF331A400283028B4FF6FF73EB
:1042B00003EA01231A4302837047F0B50C46154602
:1042C000002200210026078C4FF6EF7C07EA0C073E
:1042D0000784028B018C4FF6FF7707EA041640F63D
:1042E000FF473A404FF6FF7707EA03373A434FF666
:1042F000FF7707EA05273A438F4FB8420ED08F4F1A
:10430000B8420BD0B0F1804F08D08D4FB84205D0E5
:104310008C4FB84202D08C4FB84206D14FF6DF77AF
:10432000394046F01007394305E04FF65F773940D2
:1043300044F01007394302830184F0BD028B4FF62D
:10434000F3731A400283028B0A4302837047F0B56D
:104350000C46154600220021068C4FF6FE773E40A3
:104360000684028B018C4FF60C7632407E1C06EAE6
:1043700003162E433243704EB0420ED06F4EB04201
:104380000BD0B0F1804F08D06D4EB04205D06D4ECD
:10439000B04202D06C4EB04206D14FF6FD763140AD
:1043A00044F00106314305E04FF6F576314044F024
:1043B0000106314302830184F0BD70B505460C4609
:1043C0005D4885420ED05D4885420BD0B5F1804FE7
:1043D00008D05B48854205D05A48854202D05A48E9
:1043E000854200D100E000BF208850B92389A2880F
:1043F00061882846FFF7ABFFE1882846FFF79EFF5C
:1044000025E0208804280AD12389A28861882846CB
:10441000FFF753FFE1882846FFF742FF17E02088A7
:1044200008280AD12389A28861882846FFF7FBFE65
:10443000E1882846FFF7EEFE09E02389A28861881B
:104440002846FFF7A6FEE1882846FFF795FE70BDD7
:104450002DE9F04105460C4600260127608808B981
:10446000022600E00026A088012801D1022700E0F2
:1044700001272088A0B92389A28861882846FFF7F0
:1044800066FFE1882846FFF759FF23893A463146FF
:104490002846FFF712FFE1882846FFF701FF13E0E7
:1044A0002389A28861882846FFF707FFE18828460C
:1044B000FFF7F6FE23893A4631462846FFF747FFC5
:1044C000E1882846FFF73AFFBDE8F0810A884B886B
:1044D0001A438B881A43CB881A430B891A434B899A
:1044E0001A438B891A43A0F8442070474FF6FF7196
:1044F000818000210180C1804180017270470021CC
:10450000018041808180C180018141818181C1819F
:104510007047002101804180012181800021C180FC
:10452000018170470021018041808180C18001812B
:104530004181818170470000002C0140003401401E
:104540000004004000080040000C004021B1028837
:1045500042F00102028004E002884FF6FE731A4026
:104560000280704731B1B0F8442042F40042A0F814
:10457000442005E0B0F84420C2F30E02A0F8442025
:1045800070471AB183890B43838102E083898B438F
:10459000838170478182704741EA0203A0F8483066
:1045A00070471AB183890B43838102E083898B436F
:1045B0008381704701894FF6F8721140018170477D
:1045C0000A46002101894FF68F731940114301817A
:1045D000704730B504460D4629462046FFF7F0FFE8
:1045E000208940F00700208130BD2DE9F0410446CC
:1045F0000D4616461F46602D06D13B460122314628
:104600002046FFF75AFE05E03B4601223146204690
:10461000FFF79DFE29462046FFF7D2FF208940F094
:1046200007002081BDE8F08130B50C4600210189EA
:10463000C9B24FF6FF7505EA032515432543294303
:10464000018130BD2DE9F04105460E4617469846DA
:10465000002443463A4631462846FFF7E5FF2C89B9
:104660004FF6F870044044F007044FF68F70044092
:1046700044F070042C81BDE8F081F0B504460D468D
:1046800016461F463B46324629462046FFF7CCFFDA
:10469000208940F480402081F0BD018582827047EE
:1046A0000A46002101884FF68F731940114301809B
:1046B0007047F0B50C4615461E4600210022002327
:1046C0000189028B038C4FF6F877394021434FF66E
:1046D000FC473A4040F201173A434FF6DD773B4042
:1046E0004FF6FF7707EA06172F433B43018102830A
:1046F0000384F0BD0A460021018B4FF68F731940E9
:104700001143018370470A460021018B48F6FF736D
:1047100019404FF6FF7303EA0223194301837047E0
:104720000A460021818B4FF68F7319401143818314
:1047300070470A460021818B48F6FF7319404FF6F7
:10474000FF7303EA022319438183704721B1028872
:1047500042F08002028004E002884FF67F731A4024
:104760000280704721B1828842F00402828004E016
:1047700082884FF6FB731A408280704721B182888D
:1047800042F00802828004E082884FF6F7731A40F4
:104790008280704721B1828842F00102828004E069
:1047A00082884FF6FE731A40828070470A460021C5
:1047B000018B4FF6F77319401143018370470A4686
:1047C0000021018B4FF2FF7319404FF6FF7303EA8C
:1047D00002231943018370470A460021818B4FF65B
:1047E000F77319401143818370470A460021818B7A
:1047F0004FF2FF7319404FF6FF7303EA0223194388
:10480000818370470A460021018B4FF6FB731940E4
:104810001143018370470A460021018B4FF6FF3395
:1048200019404FF6FF7303EA0223194301837047CF
:104830000A460021818B4FF6FB7319401143818397
:1048400070470A460021818B4FF6FF3319404FF61F
:10485000FF7303EA02231943818370470A4600214C
:10486000018B4FF67F7319401143018370470A464D
:104870000021018BC1F30E014FF6FF7303EA0223FF
:104880001943018370470A460021818B4FF67F73DD
:1048900019401143818370470A460021818BC1F37F
:1048A0000E014FF6FF7303EA022319438183704719
:1048B0000A460021018C4FF6FD7319401143018413
:1048C00070470A460021018C4FF6F77319401143D7
:1048D000018470470A460021018C4FF6DF731940AE
:1048E0004FF6FF7303EA02131943018470470A4627
:1048F0000021018C4FF67F7319404FF6FF7303EAD6
:1049000002131943018470470A460021018C4FF6B7
:10491000FF5319404FF6FF7303EA02231943018442
:1049200070470A460021018C4FF2FF7319404FF681
:10493000FF7303EA02231943018470470A460021EA
:10494000018C4DF6FF7319404FF6FF7303EA0233F3
:1049500019430184704730B5002301248C40A3B271
:10496000048C9C430484048C02FA01F5ADB22C4300
:10497000048430BD30B5002304248C40A3B2048CE1
:104980009C430484048C02FA01F5ADB22C430484E8
:1049900030BD70B5034600200024184618300125AC
:1049A0008D40ACB21D8CA5431D8409B1082909D1E5
:1049B00000EB6100056825F070050560056815438A
:1049C00005600EE00D1FC5F34E052844056825F46B
:1049D000E045056005684FF6FF7606EA0226354396
:1049E000056070BD21B1028842F00202028004E03D
:1049F00002884FF6FD731A400280704721B1028889
:104A000042F00402028004E002884FF6FB731A4071
:104A10000280704721B1828842F08002828004E0E7
:104A200082884FF67F731A408280704702884FF663
:104A3000F7731A40028002880A4302807047828816
:104A40004FF68F731A40828082880A4382807047B3
:104A500002894FF6F8731A40028102890A430281E3
:104A6000704702894FF67F731A40028102890A4318
:104A700002817047818470478185704781867047C5
:104A80000187704781877047A0F8401070470288FF
:104A90004FF6FF431A40028002880A4302807047A3
:104AA0000146888E70470146088F70470146888FFF
:104AB00070470146B1F8400070470146888C704746
:104AC0000146088D704702460020138A0B400BB147
:104AD000012000E000207047CA430282704730B5D1
:104AE0000246002000230024158A05EA0103958967
:104AF00005EA010413B10CB1012000E0002030BD33
:104B0000CA4302827047000010B5F84801680020CF
:104B1000FCF7ADFD10BD10B500F0B6FB0446214614
:104B20000020FCF7B4FDF14908600846006818B998
:104B3000FFF7EAFF012010BD0020FCE710B5044696
:104B40000C210020FCF7A3FD2060002021680860F4
:104B50002168888010BD10B5044610210020FCF7A4
:104B600096FD206010BD10B5002410210020FCF738
:104B70008EFD0446002020806060A060E06020463A
:104B800010BD2DE9F04104460D4600262F4605EBE9
:104B9000D771481000F0C0FB0646E6606660A6606C
:104BA000BDE8F08110B500240BE0FFF7DCFFD04931
:104BB00041F8240051F824002146FFF7E2FF601C71
:104BC000C4B20C2CF1DB10BD10B50C210020FCF799
:104BD0005EFD044600202060A080A060204610BD3D
:104BE00010B5002406E0FFF7EFFFC24941F82400AA
:104BF000601CC4B20C2CF6DB10BD10B5FFF7D2FF61
:104C0000FFF7EEFF10BD2DE9F04107460E46904636
:104C10003D4616B90020BDE8F08100E02D68286807
:104C20000028FBD10C2000F01DFF0446A680C4F82C
:104C30000880286820602C600120ECE770B50446ED
:104C400025682646306808B9002070BD28683060A5
:104C5000284600F0DFFE0120F7E701460A46002063
:104C600002E01268431C98B21368002BF9D1704718
:104C700001460888B0F5007F01DB01207047002065
:104C8000FCE701460888002801DC0120704700206D
:104C9000FCE770B504460D462046FFF7E9FF08B172
:104CA000002070BD606805602088401C2080A088BE
:104CB000401CA189401AC0F30800E1680844606004
:104CC0000120EEE770B504462046FFF7DAFF08B191
:104CD000002070BDA06805782089401CA189401A79
:104CE000C0F30800E1680844A0602088401E2080CE
:104CF0002846EEE710B504464FF40071E06800F076
:104D000074FBE068A06060600020208010BD8168B6
:104D100041600021018070470146486800788A6838
:104D20001278801AC0B270472DE9F0410446267906
:104D3000E7686F49896A49680A686E49886A314636
:104D4000FFF761FF002507E017F8011B684A906A2A
:104D5000FFF79FFF681C85B2B542F5DB204600F0E7
:104D6000F0FABDE8F08170B504460D460A2C11D169
:104D70004FF480516048FDF796FF60490D7008467A
:104D800001785F48FBF792FD4FF480515A48FDF7D8
:104D90008CFF05E00B2C03D129465A48FBF7C5FDD3
:104DA00070BD2DE9F04106463779341D002507E036
:104DB00014F8011B4E4AD06AFFF76BFF681C85B2DE
:104DC000082DF5DB241D002507E014F8011B484AD7
:104DD000D06AFFF75EFF681C85B2A7F10800A84201
:104DE000F3DC4349C96A8A684249C86A3946FFF711
:104DF0000AFF304600F0A5FABDE8F0812DE9F04148
:104E000004460D462879083887B2D5F80C80384911
:104E100051F824104A68374951F824003946FFF701
:104E2000F2FE002608E018F8011B314A52F824006F
:104E3000FFF72FFF701C86B2BE42F4DB284600F05D
:104E400080FABDE8F081014600220A704A70CA70FB
:104E50004A718A702C4A1278CA712C4A12788A7167
:104E600070472DE9F04104460D4600274FF40070CD
:104E700000F05AFA286000202968086028680C3081
:104E80002968C96808602F68042C43DA08210020CB
:104E9000FCF7FDFB1E49086008460068FFF7D3FFDA
:104EA0001B480068C47001201949096848701148FE
:104EB00050F8240000680079083015490968087026
:104EC0000C4B53F824301B689A880A4B53F8243053
:104ED0001B6899680E4B28681B6800F04EFA0C4856
:104EE00001680020FCF7C3FB0A2639E064020020B9
:104EF00094B10020C4B10020000801404702002006
:104F000000300140003800403E0200203D020020F9
:104F100040020020CD4951F82410286809688A68A9
:104F200006CAC0E90112C94B53F824301B689B889C
:104F3000A3F10802C54B53F824301B689B6803F1AA
:104F400008012B68D86800F037FA2868C079401D3E
:104F5000C6B2BE4850F8240000680079296808717C
:104F6000BB4951F82400FFF7C5FEB84951F82400A9
:104F7000FFF764FEB54850F82400006828B9B5482A
:104F8000007820F02000B34908703046BDE8F08179
:104F90000246487980B9887908B100207047487A7C
:104FA00008B10120FAE7087A08B10220F6E7107884
:104FB000042805DB0320F1E70A2010700420EDE748
:104FC00000BFEBE72DE9F04705460E463446307941
:104FD00008381FFA80F84FF00009241D002708E068
:104FE00014F8011B9A4A52F82500FFF752FE781C6C
:104FF000C7B2082FF4DB241D06E014F8011B944A05
:1050000052F82500FFF745FE4846411C1FFA81F97A
:105010004045F2DB8E4B53F825309A6808F10803BF
:1050200099B28A4B53F82500FFF7EDFD304600F0AA
:1050300088F9BDE8F08700EB4002874B9A5CCB68AB
:105040001A6000EB4002844B1A445278CB68C3F8D4
:10505000012000EB4002804B1A449278CB68C3F8E1
:1050600002200A79D21C0A7100230B7270472DE9C5
:10507000F04106460C461546052E4FD2DFE806F0F5
:10508000030A3A444900A879401EA8712846FFF750
:1050900088FE44E0E8680178A01F00EB40006E4AFB
:1050A0001154E8684178A01F00EB400010444170A3
:1050B000E8688178A01F00EB400010448170A71FB2
:1050C00007EB470794466744BB78A71F07EB4707E2
:1050D00067447A78A71F07EB47071CF80710A71F3C
:1050E000DFF878C15CF82700FBF7C7FF5CA000F091
:1050F0003FFA14E0A11FC8B22946FFF79CFF2946DA
:105100000A20FFF75FFF0AE029462046FFF776FEF8
:1051100005E029462046FFF755FF00E000BF00BF2D
:10512000BDE8F08110B50446A01F062828D2DFE8AC
:1051300000F003040506181900BF00BF00BF434B71
:1051400053F824301B689A88414B53F82430A01F31
:105150009968FBF7E3FE3D4951F82400FFF76EFD27
:105160000EE000BF394850F82400006881882046CE
:10517000FFF7F9FD354951F82400FFF75FFD00BF47
:1051800000BF10BD70B504460D4629462046FFF706
:1051900068FE0646304670BD73B50C46214668462B
:1051A000FFF7F6FE054622469DF800102846FFF759
:1051B0005EFF204600F0C5F87CBD10B504462046D1
:1051C000FFF7B0FF10BD70B504460D4629462046D6
:1051D000FFF7D8FF0646304670BDF8B504460020FC
:1051E00000901A4850F8240000688088082809DBDD
:1051F00069462046FFF7E7FF064630460099FFF76D
:10520000CBFF1BE0114850F824000068806800784C
:10521000FF280FD100200D4951F824100968896832
:1052200008700B49886AFFF74DFD05462946154869
:10523000FBF73CFB05490869FFF700FDF8BD10B519
:1052400004462046FFF7B9FF10BD0000C4B100209E
:1052500094B1002038020020B00200208400002019
:105260007561727420636F6E666967206261756430
:10527000203D2039363030207375636365737321A8
:105280000D0A000000300140002042F20320704768
:1052900010B51D4B1B68DB1C23F00301002019E037
:1052A00000231A4C44F8203000220CE0174B53F82E
:1052B00020300B60154B43F82010154B33F810309D
:1052C0001944531C9AB2134B33F810309342EDDC5F
:1052D000431C98B20728E3DB10BD01460B4A52F885
:1052E000210020B1094B026843F8212000BF70471C
:1052F00001B970470A46054B53F820301360034B41
:1053000043F8202000BFF4E764020020F4B100203D
:105310004E5B00085C5B000870B504462046FFF752
:10532000DCFF0546284670BD70B505460620FFF730
:10533000D4FF04460020206004F11000E060204605
:1053400070BD10B5044621460620FFF7D1FF10BD01
:1053500030B5024613460C462078187165785D71A9
:10536000E578DD7165795D72A078401C9871E5790A
:10537000DD72A579181D9D7230BD2DE9F05F0746DD
:105380008A46144698463D46C3462646A146594697
:105390002846FFF7DDFF0AE032465146E86800F094
:1053A0000BF8A9EB06001FFA80F928680546B9F149
:1053B000000FF1D1BDE8F09F40EA01039B0703D045
:1053C00009E008C9121F08C0042AFAD203E011F844
:1053D000013B00F8013B521EF9D27047D2B201E006
:1053E00000F8012B491EFBD270470022F6E710B5EA
:1053F00013460A4604461946FFF7F0FF204610BD43
:1054000010B5044604E00B7800F8013B03B1491CD9
:10541000521EF8D2204610BD421C10F8011B002974
:10542000FBD1801A7047034611F8012B00F8012BBD
:10543000002AF9D11846704730B5054600200346CA
:1054400000E05B1C934205D2EC5CC85C201A01D1E1
:10545000002CF6D130BD2DE9F05F054600209246C4
:105460009B4688460646814640241BE02846414626
:105470004746224600F020F853465A46C01A91414A
:1054800010D311461846224600F038F82D1A67EB63
:1054900001084F4622460120002100F02FF817EBAB
:1054A00000094E41201EA4F10104DFDC48463146CC
:1054B0002A464346BDE8F09F202A04DB203A21FA21
:1054C00002F00021704721FA02F3D040C2F120021D
:1054D0009140084319467047064C074D06E0E068C6
:1054E00040F0010394E8070098471034AC42F6D32B
:1054F000FAF722FE645D0008845D0008202A04DBC0
:10550000203A00FA02F1002070479140C2F12003D6
:1055100020FA03F319439040704770B58C1810F8C7
:10552000015B15F0070301D110F8013B2A1106D1E8
:1055300010F8012B03E010F8016B01F8016B5B1E02
:10554000F9D12B0705D40023521E0DD401F8013BDD
:10555000FAE710F8013BCB1A921C03E013F8015B49
:1055600001F8015B521EF9D5A142D8D3002070BDCD
:105570000FB4054B10B503A9044A029800F018F8BF
:1055800010BC5DF814FB0000DF0E0008B400002022
:1055900002E008C8121F08C1002AFAD170477047FC
:1055A000002001E001C1121F002AFBD1704700005A
:1055B0002DE9FF4F8DB00F460546002606E0252851
:1055C0000BD0DDE90F1290476D1C761C287800285F
:1055D000F5D111B03046BDE8F08F0024A246A146B7
:1055E0000122EC4900E0044315F8013F203B02FA98
:1055F00003F00842F7D128782A2810D06FF02F0244
:105600002878A0F13001092914D80AEB8A0102EBAD
:10561000410144F0020400EB010A6D1CF0E701CFE8
:105620005FEA000A03D544F40054CAF1000A44F0CA
:1056300002046D1C28782E2817D115F8010F44F0AC
:1056400004042A280ED06FF02F022878A0F1300130
:1056500009290AD809EB890102EB410100EB010994
:105660006D1CF2E757F8049B6D1C28786C280FD04E
:1056700006DC4C2817D068280DD06A2814D104E025
:10568000742810D07A280FD10DE044F400140AE0F9
:1056900044F4801401E044F440146978814202D15A
:1056A00004F580146D1C6D1C2A786E2A1FD00CDC4A
:1056B000632A31D004DC002A8BD0582A11D1A3E010
:1056C000642A68D0692A0CD165E0732A2ED004DCE4
:1056D0006F2A73D0702A04D19BE0752A6FD0782A84
:1056E0006ED01046DDE90F129047761C50E1C4F3EE
:1056F0000250022806D0032809D0042801CF09D07F
:10570000066045E101CFF117C0E9006140E101CF3A
:1057100006803DE106703BE117F8040B8DF80000B0
:1057200000208DF80100EB46012003E057F804BB90
:105730004FF0FF3061074FF0000102D40DE008F197
:105740000101884649450FDA8045F8DB1BF808104F
:105750000029F4D108E008F1010188468142FADB12
:105760001BF808100029F6D1DDE90F23AAEB080089
:105770008146214600F036F9304400EB080604E08B
:10578000DDE90F121BF8010B9047B8F10108F7D2C1
:1057900021464846F7E00A21C4F302534FF0000BBC
:1057A0000891022B04D001CFC117032B09D00AE0C6
:1057B000FF1D27F00707F7E8020108E032E01FE0CD
:1057C00020E000B2C117042B01D140B2C117031E63
:1057D00071F1000307DA4FF0000CD0EB0C006CEB1A
:1057E00001012D2302E0230504D52B238DF824305D
:1057F000012303E0E30701D02023F7E7984658E0B0
:105800000A2110E010210EE010204FF0000B08904C
:105810000CE010214FF0000B44F004044FF0080995
:10582000089103E008214FF0000B0891C4F30253E4
:10583000022B04D001CF0021032B06D006E0FF1D70
:1058400027F00707F7E8020103E080B2042B00D13C
:10585000C0B24FF0000823072BD5702A07D0DDF81F
:1058600020C08CF0100C5CEA0B0C05D00EE040233D
:105870008DF82430012308E050EA010306D03023DC
:105880008DF824308DF8252002239846DDF820C0BD
:105890008CF0080C5CEA0B0C0BD150EA010301D12F
:1058A000630706D530238DF824304FF00108A9F1A5
:1058B0000109582A04D038A20B9208AA0A920BE0D8
:1058C0003AA2F9E75B46089AFFF7C5FD0B9B9B5C84
:1058D0000A9A521E0A92137050EA0102F2D10A98F3
:1058E000ADEB000000F1200B600702D524F48034FA
:1058F00001E04FF00109D94502DDA9EB0B0000E002
:10590000002000EB0B0141440890AAEB010AE003E0
:1059100006D4DDE90F232146504600F063F8064423
:105920004FF0000908E009A911F80900DDE90F129C
:10593000904709F10109761CC145F4DBE0030CD561
:10594000DDE90F232146504600F04CF8064404E000
:10595000DDE90F1230209047761C0899481E089008
:105960000029F5DC08E00A980A990078491C0A9198
:10597000DDE90F129047761CBBF10001ABF1010B82
:10598000F1DC21465046DDE90F2300F019F806440A
:105990006D1C1BE6092801003031323334353637AF
:1059A000383961626364656600000000303132336B
:1059B000343536373839414243444546000000000B
:1059C0002DE9F041044600251E461746880404D4FC
:1059D00005E039462020B0476D1C641EF9D52846E5
:1059E000BDE8F0812DE9F041044600251E469046B1
:1059F000C80301D5302700E02027880404D505E03E
:105A000041463846B0476D1C641EF9D52846BDE8AE
:105A1000F081000010B5002821D0114B0022001F9A
:105A2000196803E0814203D80A4649680029F9D180
:105A300052B11368841A9C4204D100681844106063
:105A4000104602E0506000E0186039B102680B1A9D
:105A5000934203D10B681A4402604968416010BD4B
:105A600068020020F0B50B30154D20F0070100242E
:105A7000144A0FE003688B420BD38B4205D95E1AA0
:105A800043184768C3E9006700E04368136002C039
:105A900004E0021D10680028ECD12046002802D145
:105AA000286808B10020F0BD064A07481060074A80
:105AB000121A22F00702C0E9002401202860D7E76B
:105AC0006C0200206802002014B2002010B40020F4
:105AD00072657365745F73797300000000400000A5
