:020000040800F2
:1000000000B80020FD1300080D0300080F030008CE
:1000100013030008170300081B030008000000007A
:100020000000000000000000000000001F030008A6
:100030002103000800000000131400081514000834
:1000400017140008171400081714000817140008E4
:1000500017140008171400081714000817140008D4
:1000600017140008171400081714000817140008C4
:10007000A50B0008BB0B0008D50B0008ED0B000812
:1000800017140008171400081714000817140008A4
:100090001714000817140008171400081714000894
:1000A0001714000817140008171400081714000884
:1000B0001714000817140008171400081714000874
:1000C000171400081714000817140008EB0800089C
:1000D0006B090008FF1000089F110008A11200081A
:1000E000850C0008171400081714000817140008DE
:1000F0001714000817140008171400081714000834
:100100001714000817140008171400081714000823
:100110001714000817140008171400081714000813
:100120001714000817140008171400081714000803
:10013000DFF80CD004F0ECF9004800476902000831
:1001400000B8002070B56448006804F081F9C5B2B9
:1001500007E0624A115D624A106903F01CFE601CF0
:10016000C4B2082CF5DB5E4909698A685D490869F3
:10017000082103F0CEFD70BD70B5054656480068F5
:1001800004F066F9C6B209E0574A115D544BEA1C07
:1001900053F8220003F0FFFD601CC4B2082CF3DB0F
:1001A000002409E0514A115D4D4BEA1C53F822002E
:1001B00003F0F1FD601CC4B2032CF3DB484BE91CD7
:1001C00053F82110474B8A68E91C53F821000B2192
:1001D00003F09FFD70BD70B53F48006804F038F92A
:1001E000C5B207E0424A115D3D4A106903F0D3FDF4
:1001F000601CC4B2082CF5DB00240DE0364A1268FE
:100200001178354A1268521C334E3260344A1069F4
:1002100003F0C1FD601CC4B2AC42EFDB3049096998
:100220008A683049086905F1080103F072FD70BD64
:1002300010B5304801680020884700F09CF900F0B4
:1002400061F900F019FA00F064FA03F0FCFC04F024
:100250003BF803F020FD00F012FF00F025FD2648DA
:1002600041686020884710BD00240025FFF7E0FFAB
:10027000FFF768FF2FE000242BE01A4850F8240015
:10028000006810B1204603F0F4FF1649A01D51F894
:100290002000006810B1A01D03F0F8FF1748007897
:1002A00010B1FF2000F0CCFA052C00D1FF246D1C0A
:1002B0001348854203D800201249086007E012481D
:1002C000854203D801200F49086000E00025601C2A
:1002D000C4B2062CD1DBCEE70800002014000020B9
:1002E00084B10020B4B100200C0000201C000020CC
:1002F00000000020B8000020200100202A02002079
:10030000A0860100A0012142801A0600704700BFAC
:10031000FEE700BFFEE700BFFEE700BFFEE7704755
:10032000704700000CB50020019000906C480068F8
:1003300040F480306A49086000BF6948006800F4F2
:10034000003000900198401C0190009818B9019865
:10035000B0F5A06FF1D16248006800F4003010B130
:100360000120009001E0002000900098012843D176
:100370005C48006840F010005A4908600846006870
:1003800020F0030008600846006840F002000860A2
:1003900053484068524948600846406848600846EB
:1003A000406840F4806048600846406820F47C1053
:1003B00048600846406840F4E81048600846006815
:1003C00040F08070086000BF4548006800F0007091
:1003D0000028F9D04248406820F0030040494860B6
:1003E0000846406840F00200486000BF3C48406852
:1003F00000F00C000828F9D10CBD10B5FFF792FFF2
:1004000010BD10B53648006840F00100344908605E
:100410000846406834490840314948600846006849
:10042000324908402E4908600846006820F48020C0
:1004300008600846406820F4FE0048604FF41F0042
:100440008860FFF7DAFF4FF000602949086010BDAF
:1004500010B5002100200022214B5B6803F00C0145
:1004600021B1042906D0082928D107E0214B224CCC
:10047000236027E01F4B204C236023E0184B5B6870
:1004800003F47010164B5B6803F48032022303EB15
:10049000904022B9194B4343174C23600DE0104B99
:1004A0005B6803F4003323B1144B4343124C2360C5
:1004B00003E0104B4343104C236003E00D4B0E4C04
:1004C000236000BF00BF064B5B68C3F303130C4CF3
:1004D000E15C094B1B68CB40074C236010BD00005A
:1004E00000100240002002400000FFF8FFFFF6FE6F
:1004F00008ED00E000127A002000002000093D0015
:100500002400002008B50121242002F081FD4FF4D1
:100510008070ADF8000010208DF8030003208DF8E6
:1005200002006946094802F0B7FA4FF480710748A3
:1005300002F05FFB0420ADF800006946044802F0B9
:10054000ABFA0421024802F054FB08BD0008014048
:100550000014014008B50121042002F059FD4FF4B8
:100560000060ADF8000048208DF8030069463E4861
:1005700002F092FA08BD08B50121142002F048FDEE
:1005800001213A4802F059FB4FF40040ADF8000059
:1005900048208DF803006946334802F07DFA202098
:1005A000ADF8000048208DF803006946304802F09D
:1005B00073FA0120ADF8000028208DF80300694689
:1005C000294802F069FAFFF7C5FF08BD10B50446D7
:1005D00014B10120274908702648007868B320210B
:1005E000234802F0ECFA58B14FF400411E4802F0E3
:1005F000E6FA28B101211C4802F0E1FA01281CD1D9
:100600000A2000F08EFB00201A49087020211848AB
:1006100002F0D5FA08B9012010BD4FF4004112488C
:1006200002F0CDFA08B90220F6E701210E4802F0E7
:10063000C6FA012815D10320EEE720210C4802F06C
:10064000BEFA01280DD1C103074802F0B8FA01280B
:1006500007D10121044802F0B2FA10B9012005497E
:1006600008700020D8E700000008014000023000B8
:1006700000100140340000201CB5012141F20400AB
:1006800002F0C6FCE020ADF8040018208DF8070049
:1006900003208DF8060001A9D44802F0FDF9E021FD
:1006A000D24802F0A6FAD24802F088FF0020D149D1
:1006B00008804FF482704880002088800220C88023
:1006C0000120088140024881382088810020C881AB
:1006D000072008824FF4A06002F002FF23208DF86B
:1006E000000001208DF801008DF802008DF8030054
:1006F000684602F0FAFE01226021BD4803F041F88D
:10070000BC49BB4802F080FF0121B94803F021F841
:100710001CBD00B587B00121082002F079FC012141
:10072000880302F082FC4FF46040ADF818001820F6
:100730008DF81B0003208DF81A0006A9AE4802F0C0
:10074000ABF9AE4802F03AFF0020ADF80400ADF876
:100750000600ADF808000220ADF80A000120ADF84F
:100760000C004002ADF80E003820ADF8100000205B
:10077000ADF812000720ADF814004FF4A06002F0AD
:10078000AFFE23208DF8000001208DF8010000202D
:100790008DF8020001208DF80300684602F0A5FEE6
:1007A00001226021954802F0ECFF01A9934802F074
:1007B0002BFF0121914802F0CCFF07B000BD10B51E
:1007C00004468C4884810146894802F01DFF0121BE
:1007D000874802F0BEFF10BD10B5044685488481ED
:1007E0000146864802F010FF0121844802F0B1FF63
:1007F00010BD70B50546002405E0601CC4B2C82CCD
:1008000001DD002070BD0221794803F026F80028A0
:10081000F3D02946764802F0CDFF002405E0601CA5
:10082000C4B2C82C01DD0020ECE70121704803F0C0
:1008300014F80028F3D06E4802F0BEFFC0B2E1E722
:1008400070B50546002405E0601CC4B2C82C01DD6B
:10085000002070BD0221694802F0FFFF0028F3D09C
:100860002946664802F0A6FF002405E0601CC4B2D9
:10087000C82C01DD0020ECE70121604802F0EDFF0B
:100880000028F3D05D4802F097FFC0B2E1E72DE900
:10089000F04104460E463746A08900BFA08800F00C
:1008A00002000028FAD0524884420ED107E0544991
:1008B000886A03F08CFAC5B22846FFF79AFF381E03
:1008C000A7F101018FB2F2D10DE007E04C49C86AEF
:1008D00003F07DFAC5B22846FFF7B2FF381EA7F134
:1008E00001018FB2F2D1BDE8F08110B5012140487D
:1008F00002F0B3FF012837D13D4802F05DFF4149C6
:1009000008703F4908693F49097803F044FA3E48B6
:100910000088401C3C4908803948006980680068AC
:100920000D2821D136480069806850F8040C0A2847
:100930001AD13648007840F0200034490870304918
:10094000086903F044FA2E49086903F040FA2C4B79
:100950001B695A682C4B1B88991E2D4B186903F094
:10096000D8F900202849088010BD10B5012123487E
:1009700002F073FF012838D1204802F01DFF2549FD
:1009800008701F4948692349097803F004FA22488E
:100990000088401C2049088019484069406850F888
:1009A000040C0D2821D116484069406850F8080C05
:1009B0000A281AD11548007840F010001349087031
:1009C0000F49486903F003FA0D49486903F0FFF93C
:1009D0000B4B5B695A68104B1B88991E0C4B58696E
:1009E00003F097F900200C49088010BD0008014071
:1009F0000030014060020020000C0140003800403F
:100A000084B1002036000020380000202802002099
:100A1000B4B100203A0000203C00002031B57A49F2
:100A20009DF8002051F82200002103F01AF89DF8EB
:100A30000000032803D09DF80000092804D10121FB
:100A4000022002F0D8FA03E00121084602F0D3FAAE
:100A50006D499DF8002051F8220002F035FF9DF805
:100A6000000004282AD09DF800000A2826D09DF80E
:100A70000000052822D09DF800000B281ED09DF80C
:100A80000000052801DD61480CE09DF80000032806
:100A900001DD5F4806E09DF80000012801DD5D48AA
:100AA00000E05D4804465D4804605D489DF8001024
:100AB00050F82100C0685949486012E09DF80000D4
:100AC000092801DD574800E05748044653480460B0
:100AD00053489DF8001050F82100C06800684F4945
:100AE00048609DF80000052803DD10204B49886010
:100AF00002E000204949886064204849C86000201D
:100B000008618020486100208861C86108624FF454
:100B100080504862002088623B499DF8002051F8CF
:100B200022003E4902F072FF40499DF8002051F832
:100B300022000122402102F0CFFB33499DF8002022
:100B400051F82200012102F08CFF38BD70B5044637
:100B50000D462D4951F82400002102F082FF2A4958
:100B600051F82400294602F091FF274951F824004A
:100B7000012102F076FF70BD70B504460D46224992
:100B800051F82400002102F06CFF1F4951F82400A5
:100B9000294602F07BFF1C4951F82400012102F094
:100BA00060FF70BD10B500220221214802F065FFF0
:100BB00000211F4802F055FF10BD10B50022022190
:100BC0001B48143802F059FF00211948143802F06C
:100BD00048FF10BD10B5002202211548283002F050
:100BE0004CFF0021124802F03CFF10BD10B500225E
:100BF00002210F48143002F040FF00210C4814304D
:100C000002F02FFF10BD000040000020044C004007
:100C100004480040044400400438014074020020AD
:100C200084B100200C3800400C30014074000020DA
:100C3000300002400EB5FFF79EFC0121084602F08D
:100C4000E7F90B21042002F03DF84FF40060019019
:100C500000208DF8080010208DF8090001208DF883
:100C60000A0001A802F068FF28208DF8000001208A
:100C70008DF801008DF802008DF80300684602F03F
:100C800034FC0EBD10B50A2000F04BF80548007882
:100C900080F00100034908704FF4006002F0C3FFC8
:100CA00010BD00002A02002010B56FF0040002F011
:100CB00066FC2E4800682E49B0FBF1F02D49087003
:100CC0000846007800EB4001C1EBC0104FF6FF7101
:100CD00001EAC0002849088010BD0146254A127863
:100CE0004A434FF0E0235A6100229A611A46126982
:100CF00042F001021A6100BF4FF0E022106900F0DB
:100D000001021AB100F48032002AF5D04FF0E0223F
:100D1000126922F001024FF0E0231A6100229A6169
:100D200070470146144A12884A434FF0E0235A6143
:100D300000229A611A46126942F001021A6100BF4C
:100D40004FF0E022106900F001021AB100F4803285
:100D5000002AF5D04FF0E022126922F001024FF094
:100D6000E0231A6100229A617047000020000020F1
:100D700000127A00700000207200002030BF70471F
:100D800072B6704762B6704700BF0E4B28220EA1A4
:100D900012A003F009FC18A003F006FC1BA003F04E
:100DA00003FC00BF00BF1A48006800F4E060194966
:100DB0000843001D16490860BFF34F8F00BF00BFF6
:100DC000FEE70000084B00082E2E5C535953544593
:100DD0004D5C7379735C7379732E63005761726E27
:100DE000696E672120257320282564293A20222551
:100DF0007322200A000000005379732077696C6C1D
:100E00002072657365742121210000000D0A000025
:100E10000CED00E00000FA05014600BF704700BF7E
:100E2000FE4A128802F04002002AF9D0C2B2FB4BFF
:100E30001B1D1A80704770B504460D46F84951F8DD
:100E40002400294602F084FA00BFF54951F8240035
:100E5000802102F0EBFA0028F7D070BD70B506468D
:100E60000C46154604E014F8011B3046FFF7E3FF7B
:100E7000281EA5F10101CDB2F5D170BD31B5E9490A
:100E80009DF8002051F82210E74A9DF8003052F8F2
:100E90002320114341F00100012102F0B9F89DF82F
:100EA0000000012801DA012000E00020044644B1DE
:100EB000DE499DF8002051F82200012102F0A8F837
:100EC00007E0DA499DF8002051F82200012102F0E4
:100ED000ACF8D3499DF8002051F8220002F0FCF84C
:100EE0001820D349C870D3489DF8001030F811007D
:100EF000CF49088003208870CF499DF8002051F821
:100F00002200CB4901F0C8FD0420C949C870CB4874
:100F10009DF8001030F81100C5490880C8499DF8B7
:100F2000002051F82200C24901F0B6FD38BD70B56D
:100F300006460C461546C34810F81600C24908700C
:100F40000846447085700120C870084602F0CDFA4A
:100F500070BDBE4A11600022BC4B9A80DA801A81B3
:100F60009A810C225A81704701B59DF8000030B17A
:100F700001280BD0022810D003281CD114E0002037
:100F8000FFF74CFD0620FFF749FD14E00120FFF7B5
:100F900045FD0720FFF742FD0DE00220FFF73EFD73
:100FA0000620FFF73BFD06E00320FFF737FD092091
:100FB000FFF734FD00BF00BF08BD7FB50C461546E6
:100FC0001E469DF80000FFF759FF324629469DF85E
:100FD0000000FFF7ACFF012C02D14FF416541FE0C4
:100FE000022C02D14FF461541AE0032C02D14FF4C9
:100FF000964415E0042C02D14FF4164410E0052C61
:1010000002D14DF6C0240BE0062C01D1904C07E034
:10101000072C02D14FF4E13402E0082C00D18D4CB2
:1010200021469DF80000FFF794FF9DF80000FFF7B0
:101030009BFF7B499DF8002051F82200834902F074
:101040008EF877499DF8002051F82200012240F2E5
:10105000244102F01CF972499DF8002051F8220049
:10106000012102F008F900BF6D499DF8002051F8F8
:101070002200402102F0DAF90028F5D07FBD10B53A
:1010800075488378027807210020FFF796FF7248A1
:101090008379027907210120FFF78FFF6E48837A59
:1010A000027A07210220FFF788FF6B48837B027BCF
:1010B00007210320FFF781FF002415E0072004EB40
:1010C0004401664A5054644810F8240004EB44017B
:1010D00011444870604800EB8400807804EB4401C0
:1010E00011448870601CC4B2042CE7DB10BD70B5DD
:1010F00004460D4660002946FFF73EFD70BD10B561
:1011000040F22441454802F0A7F9002846D00021CA
:10111000534802F0A6FC414800884048001D008862
:101120004F4802F0B5FC4F49088008460088C0F1DE
:1011300064004D490968496808444B49096848609A
:10114000474802F0A5FC49490880474800684068C4
:10115000454909688968401A64306421B0FBF1F29E
:1011600001FB12004049096808803F4B1B689A68E0
:101170003D4B1B6819883E4B186802F0CAFD40F2CF
:101180002441264802F092F93A48007840F00800DD
:10119000384908700121324802F063FC10BD10B5D7
:1011A00040F22441344802F057F9002877D000215A
:1011B0002B48143002F055FC2F4800882E48001DA3
:1011C00000882748143002F063FC2649088026482E
:1011D00040684068006800F500700988401A22499C
:1011E0004968C9680968B0FBF1F201FB12001E49A9
:1011F000496848601A48143002F04AFC1B490880CC
:101200001948406840680088174949688968098812
:10121000401AC0F308001449496830E00038014022
:1012200074000020244B0008344B0008144B0008C5
:10123000A8000020444B0008840000204C4B00080C
:1012400094000020544B0008AC000020AC020020A9
:1012500000CA0800D0F502005C4B0008A002002084
:1012600058000240B400002084B10020B2000020E9
:10127000B4B1002028020020004400400FE00880A4
:1012800040F22441544802F011F95448007840F0EB
:101290000400524908700121514802F0E2FB10BDE0
:1012A00010B540F224414F4802F0D6F8002846D04D
:1012B00000214B483C3802F0D4FB4A48008849489A
:1012C000001D008846483C3802F0E2FB4649088091
:1012D000464880684068006800F500700988401A38
:1012E00042498968C9680968B0FBF1F201FB120044
:1012F0003E49896848603A483C3802F0C9FB3C499D
:1013000008803A4880684068008838498968896858
:101310000988401AC0F3080034498968088040F2FF
:101320002441304802F0C2F82C48007840F0020016
:101330002A49087001212A483C3802F092FB10BD6E
:1013400010B540F224412B4802F086F8002842D024
:101350000021294802F085FB264800882548001D09
:101360000088254802F094FB1F4908801F48C06888
:101370004068006800F500700988401A1B49C96878
:10138000C9680968B0FBF1F201FB12001749C9688E
:101390004860194802F07CFB154908801348C06872
:1013A000406800881149C96889680988401AC0F3F3
:1013B00008000E49C968088040F224410D4802F037
:1013C00075F80648007840F00100044908700121D2
:1013D000094802F046FB10BD0044004028020020EE
:1013E0006C00024000480040B400002084B100209E
:1013F000B2000020004C0040300402400648804704
:1014000006480047FEE7FEE7FEE7FEE7FEE7FEE7E9
:10141000FEE7FEE7FEE7FEE70304000831010008EF
:1014200070B503460C4603E014F8015B03F8015B5A
:10143000151EA2F10102F7D170BD30B5034601E0DF
:1014400003F8011B141EA2F10102F9D130BD10B541
:1014500004467C4951F824104A007B4951F8240085
:101460000021FFF7EAFF794951F82420764908392D
:1014700051F824000021FFF7E0FF012172480830F5
:10148000015510BD10B501460023002207E06E484B
:1014900050F8210030F8120000B15B1C521C694862
:1014A00050F821009042F2D864205843654C54F81B
:1014B0002140B0FBF4F0C0B210BD2DE9F047044666
:1014C0000F460025A94660480830005D20B95E48F7
:1014D00010380168204688471FB94FF0FF30BDE83B
:1014E000F0875B4850F82400B7FBF0F086B258480C
:1014F00050F82400B7FBF0F100FB117008B1701C2C
:1015000086B2504850F82400451E22E04E4850F85C
:10151000240030F8150020B909F101001FFA80F904
:1015200001E04FF00009B14512D14FF0000808E08A
:10153000454850F8240005EB080120F8116008F137
:101540000108B045F4D3424850F824006843C6E788
:101550006D1E002DDADA4FF0FF30C0E72DE9F041C3
:1015600004460E4638480830005D38B93648103811
:101570000168204688470120BDE8F081334850F8D3
:101580002400B04217D9324850F82400B6FBF0F1DD
:101590002D4850F8240030F81120002507E00023E2
:1015A000294850F824004F1920F817306D1C954237
:1015B000F5DB0020E0E70220DEE770B505460C46CB
:1015C00004B970BD2048083850F82500261A314665
:1015D0002846FFF7C3FF00BFF3E770B504460E4689
:1015E00031462046FFF769FF0546681C08B9002010
:1015F00070BD1548083850F824002844F8E72DE954
:10160000F04104460F46164631462046FFF755FF87
:101610000546681C10B90020BDE8F0810A49083968
:1016200051F82410481932463946FFF7F9FE394679
:101630002046FFF7C2FF0448083850F82400284429
:10164000EAE700006C4B0008C80000207C4B000853
:10165000744B000810B594B00446402313AA03A9A4
:10166000204600F0BDFF0090009810B1012014B09A
:1016700010BD9DF84C000444002013900EE0574824
:101680009DF84C2050F8221003A800F011FF00B97B
:1016900008E09DF84C00401CC0B213909DF84C002F
:1016A0000728ECD300BF9DF84C0007287ED2DFE866
:1016B00000F004053F619392910000BF48A002F042
:1016C00073FF48A002F070FF56A002F06DFF65A006
:1016D00002F06AFF70A002F067FF7DA002F064FFD5
:1016E0008AA002F061FF99A002F05EFF3CA002F028
:1016F0005BFFA5A002F058FFACA002F055FFB1A01F
:1017000002F052FFB5A002F04FFFBBA002F04CFF69
:10171000C0A002F049FFCDA002F046FFD9A002F020
:1017200043FFE5A002F040FFF0A002F03DFF85E29C
:101730002BA002F039FFFB4802F036FF0020139087
:101740000EE0F94800689DF84C2000EBC2004168AB
:10175000F6A002F029FF9DF84C00401CC0B2139087
:10176000F148007D9DF84C108842EADC1CA002F094
:101770001BFF63E21AA002F017FFEE4802F014FF0D
:10178000002013901CE0E84909689DF84C2001EB0B
:10179000C20101AB02AA486803A900F047FFE24872
:1017A00000689DF84C1050F8312000E044E203A995
:1017B000E1A002F0F9FE9DF84C00401CC0B213906D
:1017C000D948007D9DF84C108842DCDC04A002F072
:1017D000EBFE33E211E2E5E1B8E10000D4000020C5
:1017E0000D0A00002D2D2D2D2D2D2D2D2D2D2D2DC6
:1017F0002D2D2D2D2D2D2D2D2D2D2D2D55534D4197
:1018000052542056312E302D2D2D2D2D2D2D2D2D98
:101810002D2D2D2D2D2D2D2D2D2D2D2D2D2D2D2005
:101820000D0A0000B4AEBFDAB5F7CAD4BBA5BDBB84
:10183000D7E9BCFE2CD4DA40D5FDB5E3D4ADD7D37F
:1018400055534D415254332E33B0E6B1BEBBF9B4BB
:10185000A1C9CFBDF8D0D0D2C6D6B2B7E2D7B02E8C
:101860000D0A0000B7E2D7B0B2BFB7D66170692CDD
:10187000B6D4D7E9BCFEBDF8D0D0B7E2D7B0B3C973
:10188000BFE2A3A1D0C2D4F6D6A7B3D6746162B921
:10189000A6C4DC0D0A000000CDA8B9FDB4AEBFDAC5
:1018A000B5F7D3C3B3CCD0F2C0EFC3E6B5C4C8CE4E
:1018B000BACEBAAFCAFD2CB2A2D6B4D0D02ED2F2D4
:1018C000B4CB2CC4E3BFC9D2D4CBE6D2E20D0A001C
:1018D000B8FCB8C4BAAFCAFDB5C4CAE4C8EBB2CE4E
:1018E000CAFD28D6A7B3D6CAFDD7D62831302F31A6
:1018F00036BDF8D6C62CD6A7B3D6B8BACAFD29A12C
:10190000A2D7D6B7FBB4AE0D0A000000A1A2BAAFB1
:10191000CAFDC8EBBFDAB5D8D6B7B5C8D7F7CEAAD7
:10192000B2CECAFD292CB5A5B8F6BAAFCAFDD7EE1E
:10193000B6E0D6A7B3D63130B8F6CAE4C8EBB2CE1B
:10194000CAFD2CB2A2D6A7B3D60D0A00BAAFCAFD03
:10195000B7B5BBD8D6B5CFD4CABE2ED6A7B3D6B2EC
:10196000CECAFDCFD4CABEBDF8D6C6C9E8D6C3B963
:10197000A6C4DC2CD6A7B3D6BDF8D6C6D7AABBBBA7
:10198000B9A6C4DC2E0D0A0055534D415254D3D094
:1019900037B8F6CFB5CDB3C3FCC1EE28B1D8D0EB84
:1019A000D0A1D0B4293A0D0A000000003F3A20200F
:1019B00020202020BBF1C8A1B0EFD6FAD0C5CFA21D
:1019C0000D0A000068656C703A202020BBF1C8A1A8
:1019D000B0EFD6FAD0C5CFA20D0A00006C697374BF
:1019E0003A202020BFC9D3C3B5C4BAAFCAFDC1D005
:1019F000B1ED0D0A0A00000069643A202020202081
:101A0000BFC9D3C3BAAFCAFDB5C44944C1D0B1ED53
:101A10000D0A0A006865783A20202020B2CECAFD5F
:101A20003136BDF8D6C6CFD4CABE2CBAF3B8FABF89
:101A3000D5B8F12BCAFDD7D6BCB4D6B4D0D0BDF83A
:101A4000D6C6D7AABBBB0D0A0A0000006465633A7C
:101A500020202020B2CECAFD3130BDF8D6C6CFD46A
:101A6000CABE2CBAF3B8FABFD5B8F12BCAFDD7D687
:101A7000BCB4D6B4D0D0BDF8D6C6D7AABBBB0D0A6D
:101A80000A00000072756E74696D653A312CBFAA48
:101A9000C6F4BAAFCAFDD4CBD0D0BCC6CAB13B30B5
:101AA0002CB9D8B1D5BAAFCAFDD4CBD0D0BCC6CA38
:101AB000B13B0D0A0A000000C7EBB0B4D5D5B3CCDA
:101AC000D0F2B1E0D0B4B8F1CABDCAE4C8EBBAAF45
:101AD000CAFDC3FBBCB0B2CECAFDB2A2D2D4BBD841
:101AE000B3B5BCFCBDE1CAF82E0D0A002D2D2D2D7D
:101AF0002D2D2D2D2D2D2D2D2D2D2D2D2D2D2D2D16
:101B00002D2D2D2D2D2D2D2D2D2D2D2D2D2D2D2D05
:101B10002D2D2D2D2D2D2D2D2D2D2D2D2D2D2D2002
:101B20000D0A00000C4C00082001002025730D0A4E
:101B300000000000C44B000825732069642069730D
:101B40003A0D0A3058253038580D0A00AFF270307F
:101B500002F02AFD13AA03A9204600F043FE9DF8D7
:101B60004C00C8B9694603A800F0D5FC13909DF855
:101B70004C0020B9FDA0009902F016FD0EE09DF882
:101B80004C00042801D0022071E5FBA002F00CFDFE
:101B90000120FE49C87501E0022068E5F5A002F0C9
:101BA00003FD4BE0F3A002F0FFFC13AA03A92046BB
:101BB00000F018FE9DF84C00C8B9694603A800F073
:101BC000AAFC13909DF84C0020B9F1A0009902F0F6
:101BD000EBFC0EE09DF84C00042801D0022046E505
:101BE000EEA002F0E1FC0020E849C87501E0022007
:101BF0003DE5E0A002F0D8FC20E0DEA002F0D4FC3D
:101C000013AA03A9204600F0EDFD9DF84C0068B929
:101C1000694603A800F07FFC13909DF84C0018B9AA
:101C2000E34802F0C1FC03E0022020E502201EE5AB
:101C3000D0A002F0B9FC01E0012018E500BF0020AF
:101C400015E5DC4A1060DC4A1160704710B50446A7
:101C50000120CE49C875D9480188D948FFF7F1FF5E
:101C600010BD30B5A5B0054623AB22AA11A9284660
:101C700000F0DCFC044614B1204625B030BD002045
:101C8000249026E0C14909689DF8902001EBC2012B
:101C900023AB21AA486801A900F0C8FC04460CB196
:101CA0002046EAE711A901A800F002FC60B99DF8FE
:101CB00084009DF88810884201DD0220DDE79DF850
:101CC0009000B24988750AE09DF89000401CC0B2AF
:101CD0002490AE48007D9DF890108842D2DC00BF71
:101CE000AA48007D9DF89010884201D10420C4E7E5
:101CF00024A9284600F0E7FD04460CB12046BCE7C5
:101D00009DF89000A14948750020B6E72DE9F04103
:101D1000A2B09E48847D007DA04202DC22B0BDE8D6
:101D2000F0819A49096801EBC40106AB07AA48682B
:101D300008A900F07BFC08A9A2A002F035FC00264F
:101D400044E09248008B0121B1400840D8B12221E3
:101D50009EA002F029FC304600F0A8FD8B492431FA
:101D6000471839469AA002F01FFC222197A002F0E2
:101D70001BFC304600F09AFD84492431084418A920
:101D800041F8260018E0304600F090FD7F492431EC
:101D9000085818A941F826007C48C07D30B918A819
:101DA00050F826108BA002F0FFFB05E018A850F8B1
:101DB000261089A002F0F8FB9DF81C00401EB042DE
:101DC00002D087A002F0F0FB701CC6B29DF81C0088
:101DD0008642B6DB83A002F0E7FB6C48407D0B280F
:101DE0000DD2DFE800F0060D151E27323F4E5F7260
:101DF00087006649096851F834008047054690E03D
:101E0000624A126852F8341018988847054688E0EC
:101E10005E4B1B6853F83420DDE9180190470546F6
:101E20007FE05A4F3F6857F8343018A807C89847E2
:101E3000054676E0DFF854C1DCF800C05CF8347089
:101E400018A80FC8B84705466BE01C98DFF83CC1DE
:101E50000090DCF800C05CF8347018A80FC8B847D0
:101E600005465EE0DDE91C01DFF820C1CDE9000197
:101E7000DCF800C05CF8347018A80FC8B8470546F5
:101E80004FE0DDE91C121E98DFF800C1CDE9001219
:101E90000290DCF800C05CF8347018A80FC8B8478E
:101EA00005463EE0DDE91C23DDE91E10DFF8DCC05D
:101EB000CDE90023CDE90210DCF800C05CF83470F5
:101EC00018A80FC8B84705462BE0DDE91D23DDE95A
:101ED0001F10CDE90123CDE903101C98DFF8ACC039
:101EE0000090DCF800C05CF8347018A80FC8B84740
:101EF000054616E0DDE91E23DDE92010CDE90223C9
:101F0000CDE90410DDE91C01DFF880C0CDE9000156
:101F1000DCF800C05CF8347018A80FC8B847054654
:101F200000BF00BF9DF8180001280CD11748C07DE4
:101F300020B929462CA002F037FB07E029462CA047
:101F400002F032FB02E029A002F02EFB0F4890F8CD
:101F5000EC0048B10D48D0F8F0000A21B0FBF1F2D6
:101F600001FB1207094849E051E000004845583A92
:101F7000305825580D0A00003136BDF8D6C6B2CE0D
:101F8000CAFDCFD4CABE210D0A00000020010020E6
:101F90004445433A256C750D0A0000003130BDF808
:101FA000D6C6B2CECAFDCFD4CABE210D0A000000EB
:101FB000544C0008F4000020F0000020844B00087E
:101FC00084AD00200D0A2573280000002563000061
:101FD00025730000256C640030582558000000006F
:101FE0002C000000290000003D256C753B0D0A0007
:101FF0003D305825583B0D0A00000000D0F8F00095
:10200000B0FBF1F83A464146E5A002F0CDFA00BF38
:1020100084E6012807D002280CD0042811D0B0F59E
:10202000004F1FD114E0E649098821F00101E44A7C
:10203000118018E0E249098821F00201E04A11808C
:1020400011E0DF49098821F00401DD4A11800AE02E
:10205000DB49098821F40041D94A11800021D94A7D
:10206000118000E000BF00BF704710B50446204655
:1020700002F0EEF9D34908800846008820B9002014
:10208000D1490968087004E02146CF48006802F091
:10209000E6F910BD0146CB4800880880CA480068B0
:1020A000704701460020012907D002290CD00429DD
:1020B00011D0B1F5004F1CD114E0C14A127802F0E2
:1020C000010202B1012015E0BD4A127802F00202BD
:1020D00002B101200EE0BA4A127802F0040202B105
:1020E000012007E0B64A128802F4004202B1012042
:1020F00000E000BF00BF7047F0B5ADF5437D4FF481
:102100000040FFF7CEFF002838D0C2A8FFF7C2FF7B
:102110000746AE4881683846884706461EB9AB492F
:10212000C868804725E03846FFF794FAC290BDF8AA
:102130000803012802D0BDF80803C6B2CEB1012EB3
:1021400006D0022E08D0032E0AD0042E10D10BE0A8
:102150009FA002F029FA0BE0A0A002F025FA07E008
:10216000A1A002F021FA03E0A2A002F01DFA00BF34
:1021700000BF4FF40040FFF74CFF89E00420FFF759
:1021800090FF0028F9D000250420FFF742FFC2A8E5
:10219000FFF780FF0746002421E08C49096801EB26
:1021A000C401C1ABC0AA4868B0A900F03FFABDF8AD
:1021B0000823B0A9384602F05BF970B9834A126867
:1021C00002EBC402516810AA02EB851002F047F935
:1021D000681CC5B20A2D00D105E0601CC4B27B4862
:1021E000007DA042D9DC00BF012D1AD1C1ABC0AA2D
:1021F000B0A910A800F01AFA0646002404E082A054
:1022000002F0D2F9601CC4B2BDF808038442F6DBC8
:10221000B0A8FFF72AFF3946AFF24C2002F0C4F90C
:1022200035E0012D26DD294679A002F0BDF97CA01C
:1022300002F0BAF9002407E010A800EB84117FA097
:1022400002F0B2F9601CC4B2AC42F5DB7DA002F032
:10225000ABF9BDF808233946684602F0EDF80020D6
:10226000BDF808230DF802006946AFF29C2002F089
:102270009BF90CE04FF40040FFF7CBFE71A002F099
:1022800093F978A002F090F96EA002F08DF900BFEA
:102290000DF5437DF0BD0146086870470160704749
:1022A00070B505466CB24648008800F4004000282E
:1022B00074D171480078002864D1202C1EDB7F2C5B
:1022C0001CDCE0B200F0ECF83F4909683D4A128896
:1022D0008C543C480088401C3A4908806748006894
:1022E000401E0988884259D23548008840F00200D3
:1022F000334908800020334908804FE00D2C19D164
:102300003048008830B12E48008840F400402C4905
:10231000088008E05AA002F047F92948008840F0F8
:10232000010027490880002027490968254A1288AA
:10233000885433E0082C16D12248008818B90020B0
:102340002049088008E0214652A002F02DF91D48DE
:102350000088401E1B49088000201B490968194A53
:10236000128888541AE0092C06D11548008840F0DC
:1023700004001349088011E01B2C0FD101203E49B5
:1023800008700BE045480078401CC0B24349087013
:10239000022803D1002008703749087070BD000082
:1023A00046756E6374696F6E2052756E2054696D48
:1023B000653A25642E2531646D730D0A0000000016
:1023C000F8000020FA000020F40000202001002086
:1023D000BAAFCAFDB4EDCEF3210D0A00B2CECAFDEC
:1023E000B4EDCEF3210D0A00B2CECAFDCCABB6E0FF
:1023F000210D0A00CEB4D5D2B5BDC6A5C5E4B5C47D
:10240000BAAFCAFD210D0A00081B5BFF5000000097
:102410000D0A2564B8F6C6A5C5E4BAAFCAFD00002A
:102420000D0A3D3D3D3D3D3D3D3D3D3D3D3D3D3D3F
:102430003D3D3D3D3D3D3D3D3D3D3D000D0A25734E
:10244000000000000D0A3D3D3D3D3D3D3D3D3D3D13
:102450003D3D3D3D3D3D3D3D3D3D3D3D3D3D3D0DDC
:102460000A0000000D0A2020202020CEDEC6A5C5CF
:10247000E4BAAFCAFD000000FC000020F00000201C
:102480000D0A5B726F6F74405465726D696E616C9A
:102490005D00000025631B5BFF500000FD00002075
:1024A00010B5044621460120FEF7C5FC10BD000012
:1024B00002460AE010780B78984201D0012070475C
:1024C000107800B902E0521C491CF3E700BF00205D
:1024D000F5E706E002780A70027802B902E0401CD3
:1024E000491CF7E700BF70470146002005E00A7865
:1024F00002B903E0421CD0B2491CF8E700BF7047A4
:1025000010B50246012000E050430B1EA1F101046A
:10251000E1B2F9D110BD2DE9F04307460E46002582
:102520004FF00A083C46002030601FE02078392830
:1025300002DC207830280ADA2078462802DC20786D
:10254000412804DA2078582809D1012D07D12078B4
:10255000412801DB4FF01008681CC5B205E0207867
:1025600000B904E00120BDE8F083641CDEE700BF91
:102570003C46B8F1100F0FD1032D01DA0220F2E72B
:102580002078302806D16078582803D1A41CA81ED2
:10259000C5B204E00320E6E70DB90420E3E71BE041
:1025A0000DB1681EC5B22078392806DC20783028A5
:1025B00003DB2078A0F1300902E02078A0F1370990
:1025C00029464046FFF79CFF316809FB0010306048
:1025D000641C207800B900E0E2E700BF0020C2E7F9
:1025E00010B50446002010700BE020780870641CC1
:1025F000491C1078401C10701078984201DB0120B3
:1026000010BD2078202802D020780028EDD10020AD
:10261000087000BFF4E70146491C00E0491C087837
:10262000202801D10029F9D1087870472DE9FF4F02
:1026300085B0804689460027002004900390012041
:1026400002904FF0000B002544461DE02078202822
:1026500016D005F07F00052812DA0DB945F0800587
:1026600005F07F00042803D120782A2800D00EE04E
:10267000207805F07F010DF80100681CC5B202E06A
:10268000852D00D103E0641C20780028DED100BF36
:102690008DB1002005F07F010DF80100CBA1684647
:1026A000FFF706FF18B900210898017002E0012128
:1026B0000898017000254FF0000A444614E0641C9D
:1026C0000AF1010000F0FF0A2078202802D02078CB
:1026D0002A2809D12046FFF79EFF0646282E03D060
:1026E0002A2E01D0CDF810A02078282802D02078FA
:1026F0000028E4D14446049810B10498401C0444D6
:102700004FF0000A002654E0207810B94FF0010A7B
:1027100050E02078282803D116B9781CC7B213E0FE
:102720002078292808D13EB917B1781EC7B201E038
:102730004FF0010A47B93DE02078222804D10EB9B4
:10274000012000E00020064647B9207820282FD03D
:10275000207889F8000009F1010929E020782C2867
:1027600004D101200290681CC5B214E02078202812
:1027700011D0207828280ED04DB9BBF1050F06DA0C
:1027800020780DF80B000BF1010000F0FF0B029810
:10279000401CC0B20290012F0AD10298022807D132
:1027A0000298401CC0B202900398401CC0B2039033
:1027B000641CA9E700BF0398012809D100200DF887
:1027C0000B0082A16846FFF773FE08B90020039052
:1027D000079903980870002089F80000504609B056
:1027E000BDE8F08FF0B50346154600200022002614
:1027F000002455E01F782C2F01D104B901221F7845
:10280000292F01D01F780FB904B94AE0002E34D126
:102810001F78302F02DB1F78392F11DD1F78612FD1
:1028200002DB1F78662F0BDD1F78412F02DB1F783C
:10283000462F05DD1F78582F02D01F78782F0CD136
:1028400002B12EE01F78612F03DB1F78203F0F704D
:1028500001E01F780F70491C1FE01F78222F04D160
:1028600002B11EE00126012417E01F78202F14D0AA
:102870001F782C2F11D0FF2613E01F78222F00D1B4
:10288000002402B10DE044B11F785C2F02D15B1C23
:10289000471CF8B21F780F70491C471CF8B25B1C2C
:1028A000A8E700BF00270F702E70F0BD0246002081
:1028B000002105E0474B5B5C0344D8B24B1CD9B206
:1028C0009142F7DB70472DE9F043B5B005460F465E
:1028D0000024002604E000213E488155701CC6B249
:1028E0000A2EF8DB06E06D1C287818B9012035B0F7
:1028F000BDE8F08328782828F5D16D1C61E034AA62
:1029000069462846FFF76EFF064635449DF8D0001D
:1029100020B1012827D0FF284CD149E09DF80000C4
:1029200000B333A96846FFF7F6FD06460EB1022054
:10293000DDE72046FFF7BAFF26490A31339A0A50ED
:10294000A1F12400008B0121A140884321491A39BB
:10295000088304211F480155601CC4B20A2C01DD04
:102960000320C4E726E06846FFF7BEFD401C00F0E8
:10297000FF082046FFF79AFF16490A3100EB0109CC
:1029800049466846FFF7A5FD12481A38018B012019
:10299000A040014388B20F491A3908830D4800F856
:1029A0000480601CC4B20A2C01DD03209FE701E013
:1029B00002209CE700BF2878292801D0287800B998
:1029C00000E09CE700BF3C70002090E7766F6964F0
:1029D000000000003A01002010B50446CC488442B3
:1029E00008D10121042000F02DFB0021042000F07B
:1029F00029FB46E0C748844208D10121082000F0A5
:102A000021FB0021082000F01DFB3AE0C24884426F
:102A100008D10121102000F015FB0021102000F04A
:102A200011FB2EE0BD48844208D10121202000F096
:102A300009FB0021202000F005FB22E0B848844279
:102A400008D10121402000F0FDFA0021402000F0D3
:102A5000F9FA16E0B348844208D10121802000F041
:102A6000F1FA0021802000F0EDFA0AE0AE4884423D
:102A700007D10121801500F0E5FA0021A01500F032
:102A8000E1FA10BD10B50121084600F0DBFA002183
:102A9000012000F0D7FA10BD2DE9F04102460025D3
:102AA0000026002000230024002791F803C00CF02A
:102AB0000F0591F803C00CF0100CBCF1000F03D00F
:102AC00091F802C04CEA050591F800C0BCF1000F76
:102AD00031D0146800202BE04FF0010C0CFA00F309
:102AE000B1F800C00CEA03069E4220D183004FF0EB
:102AF0000F0C0CFA03F7BC4305FA03FC4CEA040480
:102B000091F803C0BCF1280F06D14FF0010C0CFA6C
:102B100000FCC2F814C00AE091F803C0BCF1480FF1
:102B200005D14FF0010C0CFA00FCC2F810C0401C9B
:102B30000828D1D31460B1F800C0BCF1FF0F34DD18
:102B4000546800202EE000F1080C4FF0010808FA4C
:102B50000CF3B1F800C00CEA03069E4221D18300B9
:102B60004FF00F0C0CFA03F7BC4305FA03FC4CEAD8
:102B7000040491F803C0BCF1280F05D100F1080C42
:102B800008FA0CF8C2F8148091F803C0BCF1480FA1
:102B900007D100F1080C4FF0010808FA0CF8C2F850
:102BA0001080401C0828CED35460BDE8F0814FF659
:102BB000FF710180022181700421C17070470246BB
:102BC000002093680B400BB1012000E0002070470B
:102BD0000146886880B2704702460020D3680B40E7
:102BE0000BB1012000E0002070470146C86880B2A8
:102BF000704701617047416170470AB1016100E0AF
:102C000041617047C16070474FF480320A4382616E
:102C10008161826182698269704702460020434B6C
:102C200018684FF68073184040EA021008433F4B83
:102C3000186070473E49C8617047F0B50A460023E6
:102C400000240021002500F00046B6F1004F02D11B
:102C5000364EF16901E0354E7168C0F3034583B229
:102C600000F44016B6F5401F08D121F070612F4ED8
:102C7000766826F070662D4F7E6012E000F48016B4
:102C8000B6F5801F06D1032606FA05F4A14341F0EC
:102C9000706106E0460D360103FA06F6B14341F0D5
:102CA000706122B1460D360103FA06F6314300F099
:102CB0000046B6F1004F02D11C4EF16101E01B4EFF
:102CC0007160F0BD30B500228B071C0F0F2303FA93
:102CD00004F2164B08338C1053F824309343134CF2
:102CE00008348D1044F8253023468C1053F82430D6
:102CF0008C07240F00FA04F423430C4C08348D1085
:102D000044F8253030BD0A49DC31086070470000C6
:102D100000080140000C0140001001400014014077
:102D200000180140001C014000200140000001404B
:102D300000002042DF48006840F00100DD490860E3
:102D400008464068DC490840DA494860084600689F
:102D5000DA490840D74908600846006820F4802016
:102D600008600846406820F4FE0048604FF41F00E9
:102D700088607047CF49096821F48031CD4A1160DD
:102D80001146096821F480211160B0F5803F03D01D
:102D9000B0F5802F0ED106E0C649096841F48031B4
:102DA000C44A116007E0C349096841F4A021C14A3F
:102DB000116000E000BF00BF704710B5014600225F
:102DC000002300204A11012A02D1BA4C236806E0F0
:102DD000022A02D1B74C236A01E0B64C636A01F0C3
:102DE0001F02012494401C400CB1012000E000208F
:102DF00010BD38B5002000900024002500BF312010
:102E0000FFF7DBFF05460098401C00900098B0F5E6
:102E1000A06F01D0002DF2D03120FFF7CEFF08B116
:102E2000012400E00024204638BD01460020A14ACC
:102E3000106820F0F80040EAC10010607047A04917
:102E400008607047024600209A4B586820F47C10B6
:102E500042EA01031843974B586070479849086647
:102E6000704701460020934A506820F00300084351
:102E7000506070478F48406800F00C007047014672
:102E800000208C4A506820F0F000084350607047E2
:102E900001460020874A506820F4E06008435060F3
:102EA000704701460020834A506820F4605040EA91
:102EB000C1005060704729B17E4A527A02437D4B6F
:102EC0005A7204E07B4A527A82437A4B5A727047B4
:102ED0007B49D8310860704701460020754A506828
:102EE00020F440400843506070470021714A20326E
:102EF0001170704A82F82010012802D004280AD1EB
:102F000004E001216B4A2032117005E00521694A75
:102F10002032117000E000BF00BF704769490860AF
:102F200070476449096A0143624A11627047654902
:102F300044390860704730B5002100220024002386
:102F40005C4D6D6805F00C0121B1042905D00829FC
:102F500023D105E05C4D056022E05B4D05601FE07C
:102F6000544D6D6805F47012524D6D6805F480344F
:102F7000022505EB92421CB9544D554305600BE008
:102F80004C4D6D6805F400351DB1504D554305603D
:102F900002E04D4D5543056002E04B4D056000BF1A
:102FA00000BF444D6D6805F0F0010909484D6B5CA8
:102FB0000568DD4045603F4D6D6805F4E061090A34
:102FC000434D6B5C4568DD4085603A4D6D6805F4A6
:102FD0006051C90A3E4D6B5C4568DD40C560354DAA
:102FE0006D6805F44041890B3A4D6B5CC568B5FBD3
:102FF000F3F5056130BD29B12E4A526902432D4BCC
:103000005A6104E02B4A526982432A4B5A61704745
:1030100029B1284A92690243264B9A6104E0254A65
:1030200092698243234B9A61704729B1214AD26940
:103030000243204BDA6104E01E4AD26982431D4BF1
:10304000DA61704729B11B4AD2680243194BDA6032
:1030500004E0184AD2688243164BDA60704729B1FF
:10306000144A12690243134B1A6104E0114A1269AF
:103070008243104B1A61704712494039086070470B
:103080000F49C86470470B49C87170470948406AC6
:1030900040F0807007494862704701460020054AA9
:1030A00092680A400AB1012000E0002070470149FF
:1030B00088727047001002400000FFF8FFFFF6FE24
:1030C000000042428004424200127A0000093D00A2
:1030D000140200202402002010B50446FB4884425C
:1030E00009D101218803FFF7ADFF00214FF4804093
:1030F000FFF7A8FF32E0F648844209D101214804D5
:10310000FFF7ADFF00214FF40030FFF7A8FF25E0E7
:10311000F048844209D101218804FFF7A0FF002173
:103120004FF48020FFF79BFF18E0EB48844209D161
:103130000121C804FFF793FF00214FF40020FFF79F
:103140008EFF0BE0E548844208D101210805FFF716
:1031500086FF00214FF48010FFF781FF10BD2DE99D
:10316000F04786B005460E460024A24600BFA146A1
:103170000027B08900B100BF2F462C8A4CF6FF70A3
:103180000440F08804432C82AC894EF6F3100440CE
:10319000B08831890843718908430443AC81AC8A03
:1031A0004FF6FF400440B0890443AC8201A8FFF70A
:1031B000C2FEC648874202D1DDF810A001E0DDF86A
:1031C0000CA0A88900F4004040B10AEBCA0000EB53
:1031D0000A1031684900B0FBF1F807E00AEBCA00B9
:1031E00000EB0A1031688900B0FBF1F86420B8FBED
:1031F000F0F004012009642101FB1089A88900F482
:10320000004040B1322000EBC900B0FBF1F000F00B
:103210000700044308E0322000EB09106421B0FBF2
:10322000F1F000F00F0004432C8106B0BDE8F087F8
:103230004FF41651016000218180C18001810C2171
:10324000418100218181704710B502460020108A1B
:103250004FF2FF0318400B884C8823438C8823438C
:10326000CC8823431843108210BD00210180418087
:103270008180C180704721B1828942F400528281ED
:1032800004E082894DF6FF731A4082817047F0B5E1
:103290000346002400260025002040F66A17B942A4
:1032A00000D100BF1846C1F3421401F01F060127E8
:1032B00007FA06F5012C01D10C3004E0022C01D1F3
:1032C000103000E014301AB107682F43076002E0A5
:1032D0000768AF430760F0BD1AB1838A0B4383824E
:1032E00002E0838A8B4383827047028A4FF6F07331
:1032F0001A400282028A0A430282704782894FF290
:10330000FF731A40828182890A438281704721B10A
:10331000828942F00202828104E082894FF6FD73C5
:103320001A4082817047028A4FF6DF731A40028288
:10333000028A0A430282704721B1028A42F4804223
:10334000028204E0028A4BF6FF731A400282704741
:10335000C1F308028280704701468888C0F30800E4
:103360007047818941F0010181817047028BD2B29F
:103370000283028B42EA012202837047028B02F42D
:103380007F420283028B0A430283704721B1828A03
:1033900042F02002828204E0828A4FF6DF731A40F4
:1033A0008282704721B1828A42F01002828204E058
:1033B000828A4FF6EF731A408282704721B1828A67
:1033C00042F00802828204E0828A4FF6F7731A40C4
:1033D0008282704721B1828942F40042828103E0F7
:1033E0008289C2F30E028281704721B1828A42F43F
:1033F0000062828204E0828A4FF2FF731A40828266
:103400007047828A4FF6FB731A408282828A0A438F
:103410008282704721B1828A42F00202828204E0F5
:10342000828A4FF6FD731A4082827047024600205E
:10343000B1F5007F00D100BF13880B400BB1012014
:1034400000E00020704701F40072B2F5007F00D167
:1034500000BFCA430280704770B5024600240023B3
:103460000025002040F66A16B14200D100BFC1F32A
:10347000421501F01F03012606FA03F3012D02D1C4
:103480009689334006E0022D02D1168A334001E0CE
:10349000968A33400C12012606FA04F4168834404A
:1034A00013B10CB1012000E0002070BD10B5002266
:1034B000002340F66A14A14200D100BF0A12012481
:1034C0009440A3B2DC43048010BD000000380140EA
:1034D0000044004000480040004C004000500040C4
:1034E00031490143314A1160704770B50021002312
:1034F0000F22C47804B32D4C246804F4E064C4F5AE
:10350000E064210AC1F10403CA40447804FA03F1DB
:103510008478144021430901254C0678A15504788C
:1035200004F01F050124AC4005786D11AD0005F1D4
:10353000E025C5F8004109E0047804F01F050124E6
:10354000AC401C4D0678761145F8264070BD1A4AED
:103550000A400243154B1B1F1A60704739B1134ACA
:10356000121D12680243114B1B1D1A6006E00F4A20
:10357000121D126882430D4B1B1D1A6070470428F0
:1035800008D14FF0E021096941F004014FF0E02239
:10359000116107E04FF0E021096921F004014FF0CB
:1035A000E0221161704700000000FA050CED00E018
:1035B00000E400E080E100E080FFFF1F10B504465A
:1035C000BE48844208D101218014FFF73BFD002151
:1035D000A014FFF737FD16E0B948844208D1012155
:1035E0000014FFF73CFD00212014FFF738FD0AE02E
:1035F000B448844207D10121C013FFF730FD0021F8
:10360000E013FFF72CFD10BD10B50022028802F474
:1036100041520B884C8823438C882343CC88234316
:103620000C8923434C8923438C892343CC8923432E
:103630001A430280838B4FF2FF74234083830B8AEB
:10364000038210BD2DE9F04F85B005460C464FF0C2
:10365000000902274FF000084FF0010B0026B24688
:10366000A88B4FF240010840A88302202884B5F8B7
:103670001C90A068022801D100BF38E0A08810B9D2
:103680004FF0010B01E04FF0020B8D48854200D155
:1036900000E000BF6846FFF74EFCDDF800A0E088C0
:1036A000B0F5007F0AD14FEA1A2000EB80004000FD
:1036B000A168B0FBF1F0401D86B20BE04FEA4B1061
:1036C000BAFBF0F000EB80004000A168B0FBF1F025
:1036D000401D86B20A20B6FBF0F606F00108A6EB04
:1036E0000800C0F34F074FF6FF7000EA0828022FCA
:1036F00001DBFF2F02DD02274FF00008E08840EADF
:10370000080038432884A088A189084361880843B9
:103710002188084340F4006040EA0909A5F81C909C
:1037200005B0BDE8F08F0021018041808180C1801B
:10373000018141818181C18107210182704700217E
:10374000018041808180C1800221816000218181CE
:10375000704721B1028842F04002028004E00288F2
:103760004FF6BF731A400280704721B1828B42F43A
:103770008062828304E0828B4FF6FF331A4082839B
:10378000704730B5002400230C110125A540ABB2D1
:103790001AB185881D43858002E085889D43858018
:1037A00030BD1AB183880B43838002E083888B434A
:1037B00083807047818170470146888970474FF642
:1037C000FF62914204D0028842F48072028004E0D9
:1037D00002884FF6FF631A400280704721B1828849
:1037E00042F00402828004E082884FF6FB731A40A4
:1037F0008280704702884FF2FF731A40028002886D
:103800000A4302807047018841F48051018070476B
:1038100021B1028842F40052028004E002884DF691
:10382000FF731A400280704702460020012901D030
:10383000108B00E0908A70470146088A7047B1F506
:10384000804F04D1028842F48042028004E0028862
:103850004BF6FF731A40028070470246002013891E
:103860000B400BB1012000E000207047CA430281E9
:103870007047F0B50246002000240023002501F027
:103880000F070126BE40B4B20B1101269E40B3B211
:10389000968806EA03051689264016B10DB1012067
:1038A00000E00020F0BD10B5002201F00F0401235C
:1038B000A3409AB2D343038110BD00000030014001
:1038C00000380040003C004001684FF6FE72114095
:1038D00001600021016041608160C1608D498842C2
:1038E00008D18C490839496841F00F01894A083AE2
:1038F00051608AE087491431884208D185490839E6
:10390000496841F0F001834A083A51607DE08149FD
:103910002831884208D17F490839496841F47061EB
:103920007C4A083A516070E07A493C31884208D1BB
:1039300078490839496841F47041764A083A51603B
:1039400063E074495031884208D1724908394968A6
:1039500041F470216F4A083A516056E06D49643174
:10396000884208D16B490839496841F47001694AB5
:10397000083A516049E067497831884208D1654981
:103980000839496841F07061624A083A51603CE088
:103990006149884206D1011F096841F00F01021FE9
:1039A000116032E05C491431884208D15A49091F3C
:1039B000096841F0F001584A121F116025E056498C
:1039C0002831884208D15449091F096841F47061BF
:1039D000514A121F116018E04F493C31884208D10A
:1039E0004D49091F096841F470414B4A121F11608B
:1039F0000BE049495031884207D14749091F0968FE
:103A000041F47021444A121F1160704710B5002222
:103A1000026847F6F0739A430C6A8B6823430C697B
:103A200023434C6923438C692343CC6923434C6A69
:103A300023438C6A23431A430260CB6843600B68BC
:103A400083604B68C36010BD0021016041608160EC
:103A5000C160016141618161C16101624162816254
:103A6000704721B1026842F00102026004E002687E
:103A70004FF6FE731A40026070471AB103680B4399
:103A8000036002E003688B43036070474160704746
:103A90000146486880B2704701460020002201F0CC
:103AA00080531BB11C4B083B1A6802E0194B083BC2
:103AB0001A6802EA01030BB1012000E00020704700
:103AC00000F0805119B11449091F086002E0114942
:103AD00008394860704701460020002201F08053F9
:103AE0001BB10D4B083B1A6802E00A4B083B1A68F1
:103AF00002EA01030BB1012000E00020704700F052
:103B0000805119B10449091F086002E001490839D0
:103B10004860704708000240080402400020444901
:103B20000860091D0860091D0860091D08604148FA
:103B30003F4914310860704700213D498279002ACD
:103B40003AD00A46126803689A430B461A600A1D67
:103B5000126803689A430B1D1A60027911440A68BF
:103B600003681A430A60324A0832126803689A43AB
:103B70002F4B08331A601A1D126803689A432C4BA6
:103B80000C331A604279102A0ED11A1F126803688A
:103B90001A43274B08331A601A1D126803681A4328
:103BA000234B0C331A600DE02149427911440A6815
:103BB00003681A430A6005E0027911440A68036841
:103BC0009A430A6070470021016001710C21417124
:103BD0000021817170471649103109680143144A68
:103BE00010321160704701460020114A14321268E9
:103BF0000A400AB1012000E0002070470C4914314E
:103C000008607047014600200022094B1B6803EA48
:103C10000102074B14331B680B4013B10AB101209A
:103C200000E000207047024914310860704700002E
:103C300000040140FFFF0F0010B5FE48016800209E
:103C4000FDF7BBFC10BD10B500F03AFB0446214661
:103C50000020FDF7C2FCF74908600846006818B963
:103C6000FFF7EAFF012010BD0020FCE710B5044675
:103C70000C210020FDF7B1FC2060002021680860C5
:103C80002168888010BD10B5044610210020FDF782
:103C9000A4FC206010BD70B5002437E0E64901EBBC
:103CA0008400FFF7F0FFE54901EB8400FFF7DEFF3A
:103CB0000020E14951F824100880254604EBD57115
:103CC000481000F045FBDC4951F82410C860DA4880
:103CD00050F82400C068D84951F824104860D648EC
:103CE00050F82400C068D44951F82410886000209E
:103CF000D24951F824100860D04951F82410888026
:103D0000CE4951F824108860601CC4B20C2CC5DB6D
:103D100070BD2DE9F04106460F469046354600E05D
:103D20002D6828680028FBD10C2000F0B7FE04465F
:103D3000A780C4F80880286820602C600120BDE8B6
:103D4000F08170B5044625682646306808B9002021
:103D500070BD28683060284600F078FE0120F7E743
:103D600001460A46002002E01268431C98B213681C
:103D7000002BF9D1704701460888642801DB012037
:103D800070470020FCE701460888002801DC01207C
:103D900070470020FCE770B504460D462046FFF74B
:103DA000EAFF08B1002070BD606805602088401CF3
:103DB00020806068401CE168401A6421B0FBF1F289
:103DC00001FB1200E168084460600120EBE770B578
:103DD00004462046FFF7D7FF08B1002070BDA06859
:103DE0000578A068001DA0602088401E208028461D
:103DF000F4E710B504466421E06800F012FBE068C7
:103E0000A06060600020208010BD01468868486086
:103E10000020088070470146486800688A68126878
:103E2000801A64306422B0FBF2F302FB1300704787
:103E30002DE9F04104462679E7687F49896A496897
:103E40000A687E49886A3146FFF763FF002507E06C
:103E500017F8011B784A906AFFF79DFF681C85B22E
:103E6000B542F5DB204600F088FABDE8F08170B578
:103E700004460D460A2C0ED14FF480717048FEF7AF
:103E8000B8FE29466F48FCF702FD4FF480716C487C
:103E9000FEF7B1FE05E00B2C03D129466A48FCF77A
:103EA000F6FC70BD2DE9F04104462679E7686249C9
:103EB000C96A49680A686149C86A3146FFF729FF3B
:103EC000002507E017F8011B5B4AD06AFFF763FF84
:103ED000681C85B2B542F5DB204600F04EFABDE81D
:103EE000F0812DE9F04104460D462879083887B263
:103EF000D5F80C80504951F824104A684F4951F8C0
:103F000024003946FFF705FF002608E018F8011BDA
:103F1000494A52F82400FFF73EFF701C86B2BE42A9
:103F2000F4DB284600F029FABDE8F08101460022C2
:103F30000A704A70CA704A718A70444A1278CA710B
:103F4000434A12788A71704770B504460D460026C0
:103F50004FF4007000F004FA28600020296808601F
:103F600028680C302968C96808602E68042C2EDA8D
:103F700008210020FDF731FB36490860084600683B
:103F8000FFF7D4FF33480068C47001203149096845
:103F900048702A4850F824000068007908302D49FC
:103FA00009680870254B53F824301B689A88234B06
:103FB00053F824301B689968264B28681B6800F06A
:103FC000F8F9244801680020FDF7F7FA1AE01B49C8
:103FD00051F82410286809688A6806CAC0E90112E5
:103FE000164B53F824301B689B88A3F10802134B2F
:103FF00053F824301B689B6803F108012B68D868CC
:1040000000F0F6F90C4951F82400FFF7F2FE0B49D5
:1040100051F82400FFF795FE084850F82400006886
:1040200028B90D48007820F020000B490870286856
:1040300070BD00005402002084B10020B4B1002003
:104040000008014000300140003800402E020020EE
:104050002D0200203002002028020020024648796C
:10406000A8B9887908B100207047C879401D107040
:10407000487A08B10120F7E7087A08B10220F3E78F
:104080001078042801DB0320EEE70420ECE70A2087
:1040900010700520E8E72DE9F04104460D462E4654
:1040A0002F794FF0000806E016F8041B7A4A52F800
:1040B0002400FFF770FE4046411C1FFA81F8B84209
:1040C000F2DB754951F824108A68744951F82400CC
:1040D0003946FFF71EFE284600F04FF9BDE8F08193
:1040E00000EB40026E4B9A5CCB681A6000EB40021A
:1040F0006B4B1A445278CB685A6000EB4002684B15
:104100001A449278CB689A600A79D21C0A7100230B
:104110000B7270472DE9F04106460C461546062EF7
:104120004FD2DFE806F0030A3A434849A879401E17
:10413000A8712846FFF7B6FE44E0E8680178A01FA2
:1041400000EB4000564A1154E8684178A01F00EB8C
:10415000400010444170E8688178A01F00EB4000E7
:1041600010448170A71F07EB470794466744BB784C
:10417000A71F07EB470767447A78A71F07EB470796
:104180001CF80710A71FDFF81CC15CF82700FCF71C
:1041900014FF45A000F008FA14E029462046FFF776
:1041A0009FFF29460A20FFF776FF0BE029462046AD
:1041B000FFF797FE06E000BF29462046FFF76BFF9A
:1041C00000E000BF00BFBDE8F08110B50446A01FAD
:1041D000062825D2DFE800F0030405061B1C00BFFB
:1041E00000BF00BF2D4BA01D53F82000006882883F
:1041F000294BA01D53F8200081682046FCF72EFEB5
:10420000264AA11D52F82100FFF79BFD08E000BFE0
:10421000224850F8240081882046FFF728FE00BF7E
:1042200000BF10BD70B504460D4629462046FFF775
:104230008BFE70BD73B50C4621466846FFF70EFF36
:10424000054622469DF800102846FFF763FF2046EA
:1042500000F093F87CBD10B504462046FFF7B5FF8B
:1042600010BD70B504460D4629462046FFF7DAFF1B
:1042700070BD38B504460020009069462046FFF71F
:10428000F0FF20460099FFF7D5FF38BD10B5044672
:104290002046FFF7E0FF10BD84B10020B4B100203C
:1042A000A0020020740000207561727420636F6E9C
:1042B0006669672073756363657373210D0A000077
:1042C000002040F27B50704710B51D4B1B68DB1C73
:1042D00023F00301002019E000231A4C44F8203099
:1042E00000220CE0174B53F820300B60154B43F8BD
:1042F0002010154B33F810301944531C9AB2134B4D
:1043000033F810309342EDDC431C98B20728E3DB0E
:1043100010BD01460B4A52F8210020B1094B02683A
:1043200043F8212000BF704701B970470A46054B8A
:1043300053F820301360034B43F8202000BFF4E70C
:1043400054020020E4B10020864B0008944B000882
:1043500070B504462046FFF7DCFF0546284670BDD1
:1043600070B505460620FFF7D4FF04460020206004
:1043700004F11000E060204670BD10B504462146EF
:104380000620FFF7D1FF10BD30B5024613460C469C
:104390002078187165785D71E578DD7165795D72F9
:1043A000A078401C9871E579DD72A579181D9D7281
:1043B00030BD2DE9F05F07468A46144698463D46D3
:1043C000C3462646A14659462846FFF7DDFF0AE0C8
:1043D00032465146E86800F00BF8A9EB06001FFAD8
:1043E00080F928680546B9F1000FF1D1BDE8F09FCA
:1043F00040EA01039B0703D009E008C9121F08C067
:10440000042AFAD203E011F8013B00F8013B521EE6
:10441000F9D27047D2B201E000F8012B491EFBD25D
:1044200070470022F6E710B513460A4604461946BF
:10443000FFF7F0FF204610BD10B5044604E00B78EE
:1044400000F8013B03B1491C521EF8D2204610BDB2
:10445000421C10F8011B0029FBD1801A704703464B
:1044600011F8012B00F8012B002AF9D118467047EA
:1044700030B505460020034600E05B1C934205D2A0
:10448000EC5CC85C201A01D1002CF6D130BD2DE9BE
:10449000F05F0546002092469B46884606468146C8
:1044A00040241BE0284641464746224600F020F8BB
:1044B00053465A46C01A914110D311461846224617
:1044C00000F038F82D1A67EB01084F46224601200C
:1044D000002100F02FF817EB00094E41201EA4F137
:1044E0000104DFDC484631462A464346BDE8F09FDA
:1044F000202A04DB203A21FA02F00021704721FA39
:1045000002F3D040C2F1200291400843194670479F
:10451000064C074D06E0E06840F0010394E8070010
:1045200098471034AC42F6D3FBF706FE7C4D0008EA
:104530009C4D0008202A04DB203A00FA02F10020FA
:1045400070479140C2F1200320FA03F319439040D1
:10455000704770B58C1810F8015B15F0070301D196
:1045600010F8013B2A1106D110F8012B03E010F8D6
:10457000016B01F8016B5B1EF9D12B0705D40023F9
:10458000521E0DD401F8013BFAE710F8013BCB1A9B
:10459000921C03E013F8015B01F8015B521EF9D590
:1045A000A142D8D3002070BD0FB4054B10B503A9AC
:1045B000044A029800F018F810BC5DF814FB0000E3
:1045C0001F0E0008A400002002E008C8121F08C146
:1045D000002AFAD170477047002001E001C1121F84
:1045E000002AFBD1704700002DE9FF4F8DB00F4628
:1045F0000546002606E025280BD0DDE90F1290477E
:104600006D1C761C28780028F5D111B03046BDE825
:10461000F08F0024A246A1460122EC4900E00443A9
:1046200015F8013F203B02FA03F00842F7D1287841
:104630002A2810D06FF02F022878A0F13001092924
:1046400014D80AEB8A0102EB410144F0020400EBAA
:10465000010A6D1CF0E701CF5FEA000A03D544F4BC
:104660000054CAF1000A44F002046D1C28782E2878
:1046700017D115F8010F44F004042A280ED06FF06A
:104680002F022878A0F1300109290AD809EB890105
:1046900002EB410100EB01096D1CF2E757F8049BA6
:1046A0006D1C28786C280FD006DC4C2817D06828A1
:1046B0000DD06A2814D104E0742810D07A280FD1C4
:1046C0000DE044F400140AE044F4801401E044F4E2
:1046D00040146978814202D104F580146D1C6D1C70
:1046E0002A786E2A1FD00CDC632A31D004DC002A21
:1046F0008BD0582A11D1A3E0642A68D0692A0CD142
:1047000065E0732A2ED004DC6F2A73D0702A04D19E
:104710009BE0752A6FD0782A6ED01046DDE90F1223
:104720009047761C50E1C4F30250022806D00328BB
:1047300009D0042801CF09D0066045E101CFF11767
:10474000C0E9006140E101CF06803DE106703BE138
:1047500017F8040B8DF8000000208DF80100EB46DF
:10476000012003E057F804BB4FF0FF3061074FF022
:10477000000102D40DE008F10101884649450FDA35
:104780008045F8DB1BF808100029F4D108E008F197
:10479000010188468142FADB1BF808100029F6D196
:1047A000DDE90F23AAEB08008146214600F036F927
:1047B000304400EB080604E0DDE90F121BF8010BA2
:1047C0009047B8F10108F7D221464846F7E00A21A0
:1047D000C4F302534FF0000B0891022B04D001CF19
:1047E000C117032B09D00AE0FF1D27F00707F7E8E0
:1047F000020108E032E01FE020E000B2C117042B04
:1048000001D140B2C117031E71F1000307DA4FF066
:10481000000CD0EB0C006CEB01012D2302E0230512
:1048200004D52B238DF82430012303E0E30701D0C6
:104830002023F7E7984658E00A2110E010210EE007
:1048400010204FF0000B08900CE010214FF0000BEF
:1048500044F004044FF00809089103E008214FF0E8
:10486000000B0891C4F30253022B04D001CF0021A6
:10487000032B06D006E0FF1D27F00707F7E802012B
:1048800003E080B2042B00D1C0B24FF00008230730
:104890002BD5702A07D0DDF820C08CF0100C5CEA14
:1048A0000B0C05D00EE040238DF82430012308E0E6
:1048B00050EA010306D030238DF824308DF82520EE
:1048C00002239846DDF820C08CF0080C5CEA0B0C43
:1048D0000BD150EA010301D1630706D530238DF8CF
:1048E00024304FF00108A9F10109582A04D038A258
:1048F0000B9208AA0A920BE03AA2F9E75B46089AE3
:10490000FFF7C5FD0B9B9B5C0A9A521E0A9213701F
:1049100050EA0102F2D10A98ADEB000000F1200B41
:10492000600702D524F4803401E04FF00109D94535
:1049300002DDA9EB0B0000E0002000EB0B0141447D
:104940000890AAEB010AE00306D4DDE90F23214613
:10495000504600F063F806444FF0000908E009A94A
:1049600011F80900DDE90F12904709F10109761CE1
:10497000C145F4DBE0030CD5DDE90F2321465046A9
:1049800000F04CF8064404E0DDE90F1230209047B7
:10499000761C0899481E08900029F5DC08E00A9862
:1049A0000A990078491C0A91DDE90F129047761C9C
:1049B000BBF10001ABF1010BF1DC21465046DDE912
:1049C0000F2300F019F806446D1C1BE609280100AE
:1049D0003031323334353637383961626364656675
:1049E0000000000030313233343536373839414237
:1049F00043444546000000002DE9F04104460025EF
:104A00001E461746880404D405E039462020B047E6
:104A10006D1C641EF9D52846BDE8F0812DE9F041F2
:104A2000044600251E469046C80301D5302700E005
:104A30002027880404D505E041463846B0476D1C60
:104A4000641EF9D52846BDE8F081000010B50028A5
:104A500021D0114B0022001F196803E0814203D8C6
:104A60000A4649680029F9D152B11368841A9C4258
:104A700004D1006818441060104602E0506000E065
:104A8000186039B102680B1A934203D10B681A44BB
:104A900002604968416010BD58020020F0B50B303B
:104AA000154D20F007010024144A0FE003688B42E3
:104AB0000BD38B4205D95E1A43184768C3E90067D8
:104AC00000E04368136002C004E0021D1068002883
:104AD000ECD12046002802D1286808B10020F0BDA2
:104AE000064A07481060074A121A22F00702C0E976
:104AF000002401202860D7E75C0200205802002033
:104B000004B2002000B4002072657365745F73798D
:104B100073000000004000000000020000000400DC
:104B2000000008000400000004000000080000006D
:104B30001000000004000000040000000800000055
:104B4000100000000002040000040004000408003B
:104B50000008000825002600270034000300030099
:104B6000030003000300030003000300000500002E
:104B700000180000200000002000000000A000003D
:104B8000000003000004640064006400640064002A
:104B90006400640002000200020002000200020041
:104BA00002000000454E4332384A3630205443500C
:104BB00020436C69656E742073656E642064617453
:104BC000610D0A002D2D2D2D2D2D2D2D2D2D2D2D51
:104BD0002D2D2D2D2D2D2D2D2D2D2D2D2D66756E43
:104BE0006374696F6E2773204944202D2D2D2D2D60
:104BF0002D2D2D2D2D2D2D2D2D2D2D2D2D2D2D2DE5
:104C00002D2D2D2D2D2D200D0A0000002D2D2D2DAB
:104C10002D2D2D2D2D2D2D2D2D2D2D2D2D2D2D2DC4
:104C20002D2D2D2D2D66756E6374696F6E206C6948
:104C30007374202D2D2D2D2D2D2D2D2D2D2D2D2D24
:104C40002D2D2D2D2D2D2D2D2D2D2D2D2D2D200DC1
:104C50000A0000000D0A4572726F7221200D0A547D
:104C60006F20454E2052756E54696D652066756ED5
:104C70006374696F6E2C506C656173652073657425
:104C80002055534D4152545F454E54494D585F5342
:104C900043414E203D2031206669727374210D0A14
:104CA000000000003F0000006465630069640000CC
:104CB00072756E74696D650068656C700000000047
:104CC0006C6973740000000068657800766F696431
:104CD0002072657365745F73797328766F696429D0
:104CE00000000000766F696420746573745F7365FB
:104CF0006E645F746F5F7561727428766F69642982
:104D000000000000766F69642077726974655F61E6
:104D10006464722875333220616464722C75333296
:104D20002076616C29000000753332207265616461
:104D30005F61646472287533322061646472290093
:104D400075617274315F5043420000007561727486
:104D5000325F50434200000075617274335F50430C
:104D60004200000075617274345F504342000000DD
:104D7000706275665F504342000000009C4D000861
:104D8000000000206002000052450008844E000828
:104D900060020020A0B50000D8450008222542018D
:104DA00013A44B2B080B0C190E29082915390D8457
:104DB000A24A0438090102030406070809317112E6
:104DC000581C02406C042A30041D0402401C085A7E
:104DD00044041A800429101A58182920292C511427
:104DE000380140124412401A48041A4C041A0810A0
:104DF00029041A0C045A100CA910D11A64022113A8
:104E00004F141B08850413840332202C6884A308E4
:104E10003B0368CC124C1B08B8041AC0041AAC043B
:104E20001AC8041AA8041AB00411E2021397221433
:104E300008284D1B089D081A040813890D1B08CC6F
:104E40002813D7012B08E430120114204D1C1B0835
:104E50006304130D1D1C08F920282102E0012D0117
:104E600002030404000910060708090204060813D7
:104E7000404D1B084C041A58041A640429102904D4
:044E80001A7004C1DF
:0400000508000131BD
:00000001FF
